{
  "contractName": "BookManager",
  "abi": [
    {
      "inputs": [
        {
          "internalType": "address",
          "name": "userManagerAddress",
          "type": "address"
        }
      ],
      "stateMutability": "nonpayable",
      "type": "constructor"
    },
    {
      "inputs": [
        {
          "internalType": "uint256",
          "name": "",
          "type": "uint256"
        }
      ],
      "name": "books",
      "outputs": [
        {
          "internalType": "bytes32",
          "name": "bookId",
          "type": "bytes32"
        },
        {
          "internalType": "string",
          "name": "title",
          "type": "string"
        },
        {
          "internalType": "string",
          "name": "author",
          "type": "string"
        },
        {
          "internalType": "string",
          "name": "ipfsHash",
          "type": "string"
        },
        {
          "internalType": "uint256",
          "name": "requiredClearance",
          "type": "uint256"
        },
        {
          "internalType": "enum BookManager.FileType",
          "name": "fileType",
          "type": "uint8"
        },
        {
          "internalType": "enum BookManager.Status",
          "name": "status",
          "type": "uint8"
        },
        {
          "internalType": "address",
          "name": "proposer",
          "type": "address"
        },
        {
          "internalType": "uint256",
          "name": "yesVotes",
          "type": "uint256"
        },
        {
          "internalType": "uint256",
          "name": "noVotes",
          "type": "uint256"
        }
      ],
      "stateMutability": "view",
      "type": "function",
      "constant": true
    },
    {
      "inputs": [],
      "name": "userManager",
      "outputs": [
        {
          "internalType": "contract UserManager",
          "name": "",
          "type": "address"
        }
      ],
      "stateMutability": "view",
      "type": "function",
      "constant": true
    },
    {
      "inputs": [
        {
          "internalType": "uint256",
          "name": "",
          "type": "uint256"
        },
        {
          "internalType": "address",
          "name": "",
          "type": "address"
        }
      ],
      "name": "voted",
      "outputs": [
        {
          "internalType": "bool",
          "name": "",
          "type": "bool"
        }
      ],
      "stateMutability": "view",
      "type": "function",
      "constant": true
    },
    {
      "inputs": [
        {
          "internalType": "bytes32",
          "name": "_bookId",
          "type": "bytes32"
        },
        {
          "internalType": "string",
          "name": "_title",
          "type": "string"
        },
        {
          "internalType": "string",
          "name": "_author",
          "type": "string"
        },
        {
          "internalType": "string",
          "name": "_ipfsHash",
          "type": "string"
        },
        {
          "internalType": "uint256",
          "name": "_requiredClearance",
          "type": "uint256"
        },
        {
          "internalType": "uint256",
          "name": "_fileType",
          "type": "uint256"
        }
      ],
      "name": "addBook",
      "outputs": [],
      "stateMutability": "nonpayable",
      "type": "function"
    },
    {
      "inputs": [
        {
          "internalType": "uint256",
          "name": "_bookId",
          "type": "uint256"
        },
        {
          "internalType": "bool",
          "name": "_approve",
          "type": "bool"
        }
      ],
      "name": "voteOnBook",
      "outputs": [],
      "stateMutability": "nonpayable",
      "type": "function"
    },
    {
      "inputs": [
        {
          "internalType": "uint256",
          "name": "_index",
          "type": "uint256"
        }
      ],
      "name": "getBook",
      "outputs": [
        {
          "components": [
            {
              "internalType": "bytes32",
              "name": "bookId",
              "type": "bytes32"
            },
            {
              "internalType": "string",
              "name": "title",
              "type": "string"
            },
            {
              "internalType": "string",
              "name": "author",
              "type": "string"
            },
            {
              "internalType": "string",
              "name": "ipfsHash",
              "type": "string"
            },
            {
              "internalType": "uint256",
              "name": "requiredClearance",
              "type": "uint256"
            },
            {
              "internalType": "enum BookManager.FileType",
              "name": "fileType",
              "type": "uint8"
            },
            {
              "internalType": "enum BookManager.Status",
              "name": "status",
              "type": "uint8"
            },
            {
              "internalType": "address",
              "name": "proposer",
              "type": "address"
            },
            {
              "internalType": "uint256",
              "name": "yesVotes",
              "type": "uint256"
            },
            {
              "internalType": "uint256",
              "name": "noVotes",
              "type": "uint256"
            }
          ],
          "internalType": "struct BookManager.Book",
          "name": "",
          "type": "tuple"
        }
      ],
      "stateMutability": "view",
      "type": "function",
      "constant": true
    },
    {
      "inputs": [],
      "name": "getAllBooks",
      "outputs": [
        {
          "components": [
            {
              "internalType": "bytes32",
              "name": "bookId",
              "type": "bytes32"
            },
            {
              "internalType": "string",
              "name": "title",
              "type": "string"
            },
            {
              "internalType": "string",
              "name": "author",
              "type": "string"
            },
            {
              "internalType": "string",
              "name": "ipfsHash",
              "type": "string"
            },
            {
              "internalType": "uint256",
              "name": "requiredClearance",
              "type": "uint256"
            },
            {
              "internalType": "enum BookManager.FileType",
              "name": "fileType",
              "type": "uint8"
            },
            {
              "internalType": "enum BookManager.Status",
              "name": "status",
              "type": "uint8"
            },
            {
              "internalType": "address",
              "name": "proposer",
              "type": "address"
            },
            {
              "internalType": "uint256",
              "name": "yesVotes",
              "type": "uint256"
            },
            {
              "internalType": "uint256",
              "name": "noVotes",
              "type": "uint256"
            }
          ],
          "internalType": "struct BookManager.Book[]",
          "name": "",
          "type": "tuple[]"
        }
      ],
      "stateMutability": "view",
      "type": "function",
      "constant": true
    },
    {
      "inputs": [],
      "name": "getBooksCount",
      "outputs": [
        {
          "internalType": "uint256",
          "name": "",
          "type": "uint256"
        }
      ],
      "stateMutability": "view",
      "type": "function",
      "constant": true
    }
  ],
  "bytecode": "0x60806040523480156200001157600080fd5b50604051620023a4380380620023a48339818101604052810190620000379190620000e9565b80600160006101000a81548173ffffffffffffffffffffffffffffffffffffffff021916908373ffffffffffffffffffffffffffffffffffffffff160217905550506200011b565b600080fd5b600073ffffffffffffffffffffffffffffffffffffffff82169050919050565b6000620000b18262000084565b9050919050565b620000c381620000a4565b8114620000cf57600080fd5b50565b600081519050620000e381620000b8565b92915050565b6000602082840312156200010257620001016200007f565b5b60006200011284828501620000d2565b91505092915050565b612279806200012b6000396000f3fe608060405234801561001057600080fd5b50600436106100885760003560e01c8063687440461161005b5780636874404614610115578063dfd83d2a1461014e578063e0ff5b8b1461016c578063e7c0098a1461019c57610088565b8063354528e81461008d57806345dd5a32146100ab5780635277b4ae146100c75780635c8a7687146100f7575b600080fd5b6100956101b8565b6040516100a29190611556565b60405180910390f35b6100c560048036038101906100c09190611719565b6104c2565b005b6100e160048036038101906100dc9190611826565b610790565b6040516100ee9190611881565b60405180910390f35b6100ff6107bf565b60405161010c91906118fb565b60405180910390f35b61012f600480360381019061012a9190611916565b6107e5565b6040516101459a999897969594939291906119d8565b60405180910390f35b610156610a1b565b6040516101639190611a89565b60405180910390f35b61018660048036038101906101819190611916565b610a27565b6040516101939190611b8c565b60405180910390f35b6101b660048036038101906101b19190611bda565b610d55565b005b60606000805480602002602001604051908101604052809291908181526020016000905b828210156104b95783829060005260206000209060080201604051806101400160405290816000820154815260200160018201805461021a90611c49565b80601f016020809104026020016040519081016040528092919081815260200182805461024690611c49565b80156102935780601f1061026857610100808354040283529160200191610293565b820191906000526020600020905b81548152906001019060200180831161027657829003601f168201915b505050505081526020016002820180546102ac90611c49565b80601f01602080910402602001604051908101604052809291908181526020018280546102d890611c49565b80156103255780601f106102fa57610100808354040283529160200191610325565b820191906000526020600020905b81548152906001019060200180831161030857829003601f168201915b5050505050815260200160038201805461033e90611c49565b80601f016020809104026020016040519081016040528092919081815260200182805461036a90611c49565b80156103b75780601f1061038c576101008083540402835291602001916103b7565b820191906000526020600020905b81548152906001019060200180831161039a57829003601f168201915b50505050508152602001600482015481526020016005820160009054906101000a900460ff1660058111156103ef576103ee6112d8565b5b6005811115610401576104006112d8565b5b81526020016005820160019054906101000a900460ff16600281111561042a576104296112d8565b5b600281111561043c5761043b6112d8565b5b81526020016005820160029054906101000a900473ffffffffffffffffffffffffffffffffffffffff1673ffffffffffffffffffffffffffffffffffffffff1673ffffffffffffffffffffffffffffffffffffffff16815260200160068201548152602001600782015481525050815260200190600101906101dc565b50505050905090565b6002600160009054906101000a900473ffffffffffffffffffffffffffffffffffffffff1673ffffffffffffffffffffffffffffffffffffffff16634f3d520c336040518263ffffffff1660e01b815260040161051f9190611c7a565b602060405180830381865afa15801561053c573d6000803e3d6000fd5b505050506040513d601f19601f820116820180604052508101906105609190611cba565b6003811115610572576105716112d8565b5b10156105b3576040517f08c379a00000000000000000000000000000000000000000000000000000000081526004016105aa90611d59565b60405180910390fd5b60006040518061014001604052808881526020018781526020018681526020018581526020018481526020018360058111156105f2576105f16112d8565b5b6005811115610604576106036112d8565b5b81526020016000600281111561061d5761061c6112d8565b5b81526020013373ffffffffffffffffffffffffffffffffffffffff16815260200160008152602001600081525090806001815401808255809150506001900390600052602060002090600802016000909190919091506000820151816000015560208201518160010190816106929190611f1b565b5060408201518160020190816106a89190611f1b565b5060608201518160030190816106be9190611f1b565b506080820151816004015560a08201518160050160006101000a81548160ff021916908360058111156106f4576106f36112d8565b5b021790555060c08201518160050160016101000a81548160ff02191690836002811115610724576107236112d8565b5b021790555060e08201518160050160026101000a81548173ffffffffffffffffffffffffffffffffffffffff021916908373ffffffffffffffffffffffffffffffffffffffff160217905550610100820151816006015561012082015181600701555050505050505050565b60026020528160005260406000206020528060005260406000206000915091509054906101000a900460ff1681565b600160009054906101000a900473ffffffffffffffffffffffffffffffffffffffff1681565b600081815481106107f557600080fd5b906000526020600020906008020160009150905080600001549080600101805461081e90611c49565b80601f016020809104026020016040519081016040528092919081815260200182805461084a90611c49565b80156108975780601f1061086c57610100808354040283529160200191610897565b820191906000526020600020905b81548152906001019060200180831161087a57829003601f168201915b5050505050908060020180546108ac90611c49565b80601f01602080910402602001604051908101604052809291908181526020018280546108d890611c49565b80156109255780601f106108fa57610100808354040283529160200191610925565b820191906000526020600020905b81548152906001019060200180831161090857829003601f168201915b50505050509080600301805461093a90611c49565b80601f016020809104026020016040519081016040528092919081815260200182805461096690611c49565b80156109b35780601f10610988576101008083540402835291602001916109b3565b820191906000526020600020905b81548152906001019060200180831161099657829003601f168201915b5050505050908060040154908060050160009054906101000a900460ff16908060050160019054906101000a900460ff16908060050160029054906101000a900473ffffffffffffffffffffffffffffffffffffffff1690806006015490806007015490508a565b60008080549050905090565b610a2f61115a565b6000805490508210610a76576040517f08c379a0000000000000000000000000000000000000000000000000000000008152600401610a6d90612039565b60405180910390fd5b60008281548110610a8a57610a89612059565b5b90600052602060002090600802016040518061014001604052908160008201548152602001600182018054610abe90611c49565b80601f0160208091040260200160405190810160405280929190818152602001828054610aea90611c49565b8015610b375780601f10610b0c57610100808354040283529160200191610b37565b820191906000526020600020905b815481529060010190602001808311610b1a57829003601f168201915b50505050508152602001600282018054610b5090611c49565b80601f0160208091040260200160405190810160405280929190818152602001828054610b7c90611c49565b8015610bc95780601f10610b9e57610100808354040283529160200191610bc9565b820191906000526020600020905b815481529060010190602001808311610bac57829003601f168201915b50505050508152602001600382018054610be290611c49565b80601f0160208091040260200160405190810160405280929190818152602001828054610c0e90611c49565b8015610c5b5780601f10610c3057610100808354040283529160200191610c5b565b820191906000526020600020905b815481529060010190602001808311610c3e57829003601f168201915b50505050508152602001600482015481526020016005820160009054906101000a900460ff166005811115610c9357610c926112d8565b5b6005811115610ca557610ca46112d8565b5b81526020016005820160019054906101000a900460ff166002811115610cce57610ccd6112d8565b5b6002811115610ce057610cdf6112d8565b5b81526020016005820160029054906101000a900473ffffffffffffffffffffffffffffffffffffffff1673ffffffffffffffffffffffffffffffffffffffff1673ffffffffffffffffffffffffffffffffffffffff168152602001600682015481526020016007820154815250509050919050565b6000600160009054906101000a900473ffffffffffffffffffffffffffffffffffffffff1673ffffffffffffffffffffffffffffffffffffffff16634f3d520c336040518263ffffffff1660e01b8152600401610db29190611c7a565b602060405180830381865afa158015610dcf573d6000803e3d6000fd5b505050506040513d601f19601f82011682018060405250810190610df39190611cba565b6003811115610e0557610e046112d8565b5b11610e45576040517f08c379a0000000000000000000000000000000000000000000000000000000008152600401610e3c906120d4565b60405180910390fd5b6002600083815260200190815260200160002060003373ffffffffffffffffffffffffffffffffffffffff1673ffffffffffffffffffffffffffffffffffffffff16815260200190815260200160002060009054906101000a900460ff1615610ee3576040517f08c379a0000000000000000000000000000000000000000000000000000000008152600401610eda90612140565b60405180910390fd5b6000805490508210610f2a576040517f08c379a0000000000000000000000000000000000000000000000000000000008152600401610f21906121ac565b60405180910390fd5b60016002600084815260200190815260200160002060003373ffffffffffffffffffffffffffffffffffffffff1673ffffffffffffffffffffffffffffffffffffffff16815260200190815260200160002060006101000a81548160ff021916908315150217905550801561107a5760008281548110610fad57610fac612059565b5b90600052602060002090600802016006016000815480929190610fcf906121fb565b919050555060008281548110610fe857610fe7612059565b5b9060005260206000209060080201600701546000838154811061100e5761100d612059565b5b90600052602060002090600802016006015411156110755760016000838154811061103c5761103b612059565b5b906000526020600020906008020160050160016101000a81548160ff0219169083600281111561106f5761106e6112d8565b5b02179055505b611156565b6000828154811061108e5761108d612059565b5b906000526020600020906008020160070160008154809291906110b0906121fb565b9190505550600082815481106110c9576110c8612059565b5b906000526020600020906008020160060154600083815481106110ef576110ee612059565b5b906000526020600020906008020160070154106111555760026000838154811061111c5761111b612059565b5b906000526020600020906008020160050160016101000a81548160ff0219169083600281111561114f5761114e6112d8565b5b02179055505b5b5050565b6040518061014001604052806000801916815260200160608152602001606081526020016060815260200160008152602001600060058111156111a05761119f6112d8565b5b8152602001600060028111156111b9576111b86112d8565b5b8152602001600073ffffffffffffffffffffffffffffffffffffffff16815260200160008152602001600081525090565b600081519050919050565b600082825260208201905092915050565b6000819050602082019050919050565b6000819050919050565b61122981611216565b82525050565b600081519050919050565b600082825260208201905092915050565b60005b8381101561126957808201518184015260208101905061124e565b60008484015250505050565b6000601f19601f8301169050919050565b60006112918261122f565b61129b818561123a565b93506112ab81856020860161124b565b6112b481611275565b840191505092915050565b6000819050919050565b6112d2816112bf565b82525050565b7f4e487b7100000000000000000000000000000000000000000000000000000000600052602160045260246000fd5b60068110611318576113176112d8565b5b50565b600081905061132982611307565b919050565b60006113398261131b565b9050919050565b6113498161132e565b82525050565b600381106113605761135f6112d8565b5b50565b60008190506113718261134f565b919050565b600061138182611363565b9050919050565b61139181611376565b82525050565b600073ffffffffffffffffffffffffffffffffffffffff82169050919050565b60006113c282611397565b9050919050565b6113d2816113b7565b82525050565b6000610140830160008301516113f16000860182611220565b50602083015184820360208601526114098282611286565b915050604083015184820360408601526114238282611286565b9150506060830151848203606086015261143d8282611286565b915050608083015161145260808601826112c9565b5060a083015161146560a0860182611340565b5060c083015161147860c0860182611388565b5060e083015161148b60e08601826113c9565b506101008301516114a06101008601826112c9565b506101208301516114b56101208601826112c9565b508091505092915050565b60006114cc83836113d8565b905092915050565b6000602082019050919050565b60006114ec826111ea565b6114f681856111f5565b93508360208202850161150885611206565b8060005b85811015611544578484038952815161152585826114c0565b9450611530836114d4565b925060208a0199505060018101905061150c565b50829750879550505050505092915050565b6000602082019050818103600083015261157081846114e1565b905092915050565b6000604051905090565b600080fd5b600080fd5b61159581611216565b81146115a057600080fd5b50565b6000813590506115b28161158c565b92915050565b600080fd5b600080fd5b7f4e487b7100000000000000000000000000000000000000000000000000000000600052604160045260246000fd5b6115fa82611275565b810181811067ffffffffffffffff82111715611619576116186115c2565b5b80604052505050565b600061162c611578565b905061163882826115f1565b919050565b600067ffffffffffffffff821115611658576116576115c2565b5b61166182611275565b9050602081019050919050565b82818337600083830152505050565b600061169061168b8461163d565b611622565b9050828152602081018484840111156116ac576116ab6115bd565b5b6116b784828561166e565b509392505050565b600082601f8301126116d4576116d36115b8565b5b81356116e484826020860161167d565b91505092915050565b6116f6816112bf565b811461170157600080fd5b50565b600081359050611713816116ed565b92915050565b60008060008060008060c0878903121561173657611735611582565b5b600061174489828a016115a3565b965050602087013567ffffffffffffffff81111561176557611764611587565b5b61177189828a016116bf565b955050604087013567ffffffffffffffff81111561179257611791611587565b5b61179e89828a016116bf565b945050606087013567ffffffffffffffff8111156117bf576117be611587565b5b6117cb89828a016116bf565b93505060806117dc89828a01611704565b92505060a06117ed89828a01611704565b9150509295509295509295565b611803816113b7565b811461180e57600080fd5b50565b600081359050611820816117fa565b92915050565b6000806040838503121561183d5761183c611582565b5b600061184b85828601611704565b925050602061185c85828601611811565b9150509250929050565b60008115159050919050565b61187b81611866565b82525050565b60006020820190506118966000830184611872565b92915050565b6000819050919050565b60006118c16118bc6118b784611397565b61189c565b611397565b9050919050565b60006118d3826118a6565b9050919050565b60006118e5826118c8565b9050919050565b6118f5816118da565b82525050565b600060208201905061191060008301846118ec565b92915050565b60006020828403121561192c5761192b611582565b5b600061193a84828501611704565b91505092915050565b61194c81611216565b82525050565b600082825260208201905092915050565b600061196e8261122f565b6119788185611952565b935061198881856020860161124b565b61199181611275565b840191505092915050565b6119a5816112bf565b82525050565b6119b48161132e565b82525050565b6119c381611376565b82525050565b6119d2816113b7565b82525050565b6000610140820190506119ee600083018d611943565b8181036020830152611a00818c611963565b90508181036040830152611a14818b611963565b90508181036060830152611a28818a611963565b9050611a37608083018961199c565b611a4460a08301886119ab565b611a5160c08301876119ba565b611a5e60e08301866119c9565b611a6c61010083018561199c565b611a7a61012083018461199c565b9b9a5050505050505050505050565b6000602082019050611a9e600083018461199c565b92915050565b600061014083016000830151611abd6000860182611220565b5060208301518482036020860152611ad58282611286565b91505060408301518482036040860152611aef8282611286565b91505060608301518482036060860152611b098282611286565b9150506080830151611b1e60808601826112c9565b5060a0830151611b3160a0860182611340565b5060c0830151611b4460c0860182611388565b5060e0830151611b5760e08601826113c9565b50610100830151611b6c6101008601826112c9565b50610120830151611b816101208601826112c9565b508091505092915050565b60006020820190508181036000830152611ba68184611aa4565b905092915050565b611bb781611866565b8114611bc257600080fd5b50565b600081359050611bd481611bae565b92915050565b60008060408385031215611bf157611bf0611582565b5b6000611bff85828601611704565b9250506020611c1085828601611bc5565b9150509250929050565b7f4e487b7100000000000000000000000000000000000000000000000000000000600052602260045260246000fd5b60006002820490506001821680611c6157607f821691505b602082108103611c7457611c73611c1a565b5b50919050565b6000602082019050611c8f60008301846119c9565b92915050565b60048110611ca257600080fd5b50565b600081519050611cb481611c95565b92915050565b600060208284031215611cd057611ccf611582565b5b6000611cde84828501611ca5565b91505092915050565b7f4e6f7420656e6f75676820636c656172616e636520746f2061646420626f6f6b60008201527f7300000000000000000000000000000000000000000000000000000000000000602082015250565b6000611d43602183611952565b9150611d4e82611ce7565b604082019050919050565b60006020820190508181036000830152611d7281611d36565b9050919050565b60008190508160005260206000209050919050565b60006020601f8301049050919050565b600082821b905092915050565b600060088302611ddb7fffffffffffffffffffffffffffffffffffffffffffffffffffffffffffffffff82611d9e565b611de58683611d9e565b95508019841693508086168417925050509392505050565b6000611e18611e13611e0e846112bf565b61189c565b6112bf565b9050919050565b6000819050919050565b611e3283611dfd565b611e46611e3e82611e1f565b848454611dab565b825550505050565b600090565b611e5b611e4e565b611e66818484611e29565b505050565b5b81811015611e8a57611e7f600082611e53565b600181019050611e6c565b5050565b601f821115611ecf57611ea081611d79565b611ea984611d8e565b81016020851015611eb8578190505b611ecc611ec485611d8e565b830182611e6b565b50505b505050565b600082821c905092915050565b6000611ef260001984600802611ed4565b1980831691505092915050565b6000611f0b8383611ee1565b9150826002028217905092915050565b611f248261122f565b67ffffffffffffffff811115611f3d57611f3c6115c2565b5b611f478254611c49565b611f52828285611e8e565b600060209050601f831160018114611f855760008415611f73578287015190505b611f7d8582611eff565b865550611fe5565b601f198416611f9386611d79565b60005b82811015611fbb57848901518255600182019150602085019450602081019050611f96565b86831015611fd85784890151611fd4601f891682611ee1565b8355505b6001600288020188555050505b505050505050565b7f496e76616c696420696e64657800000000000000000000000000000000000000600082015250565b6000612023600d83611952565b915061202e82611fed565b602082019050919050565b6000602082019050818103600083015261205281612016565b9050919050565b7f4e487b7100000000000000000000000000000000000000000000000000000000600052603260045260246000fd5b7f4e6f7420656e6f75676820636c656172616e636520746f20766f746500000000600082015250565b60006120be601c83611952565b91506120c982612088565b602082019050919050565b600060208201905081810360008301526120ed816120b1565b9050919050565b7f416c726561647920766f746564206f6e207468697320626f6f6b000000000000600082015250565b600061212a601a83611952565b9150612135826120f4565b602082019050919050565b600060208201905081810360008301526121598161211d565b9050919050565b7f496e76616c696420626f6f6b2049440000000000000000000000000000000000600082015250565b6000612196600f83611952565b91506121a182612160565b602082019050919050565b600060208201905081810360008301526121c581612189565b9050919050565b7f4e487b7100000000000000000000000000000000000000000000000000000000600052601160045260246000fd5b6000612206826112bf565b91507fffffffffffffffffffffffffffffffffffffffffffffffffffffffffffffffff8203612238576122376121cc565b5b60018201905091905056fea2646970667358221220891d8947da74483bb68d265e7012658503c88272d90d9fbc9d15ac7fd4c8d9e964736f6c63430008130033",
  "immutableReferences": {},
  "source": "// SPDX-License-Identifier: MIT\r\npragma solidity ^0.8.19;\r\n\r\nimport \"./UserManager.sol\";\r\n\r\ncontract BookManager {\r\n    enum Status { Proposed, Approved, Rejected }\r\n    enum FileType { PDF, EPUB, MOBI, TEXT, IMAGE, VIDEO }\r\n\r\n    struct Book {\r\n        bytes32 bookId;\r\n        string title;\r\n        string author;\r\n        string ipfsHash;\r\n        uint requiredClearance;\r\n        FileType fileType;\r\n        Status status;\r\n        address proposer;\r\n        uint yesVotes;\r\n        uint noVotes;\r\n    }\r\n\r\n    Book[] public books;\r\n    UserManager public userManager;\r\n    mapping(uint => mapping(address => bool)) public voted;\r\n\r\n    constructor(address userManagerAddress) {\r\n        userManager = UserManager(userManagerAddress);\r\n    }\r\n\r\n    function addBook(\r\n        bytes32 _bookId,\r\n        string memory _title,\r\n        string memory _author,\r\n        string memory _ipfsHash,\r\n        uint _requiredClearance,\r\n        uint _fileType\r\n    ) external {\r\n        require(uint(userManager.getClearance(msg.sender)) >= 2, \"Not enough clearance to add books\");\r\n        books.push(Book(\r\n            _bookId,\r\n            _title,\r\n            _author,\r\n            _ipfsHash,\r\n            _requiredClearance,\r\n            FileType(_fileType),\r\n            Status.Proposed,\r\n            msg.sender,\r\n            0,\r\n            0\r\n        ));\r\n    }\r\n\r\n    function voteOnBook(uint _bookId, bool _approve) external {\r\n        require(uint(userManager.getClearance(msg.sender)) > 0, \"Not enough clearance to vote\");\r\n        require(!voted[_bookId][msg.sender], \"Already voted on this book\");\r\n        require(_bookId < books.length, \"Invalid book ID\");\r\n\r\n        voted[_bookId][msg.sender] = true;\r\n\r\n        if (_approve) {\r\n            books[_bookId].yesVotes++;\r\n            if (books[_bookId].yesVotes > books[_bookId].noVotes) {\r\n                books[_bookId].status = Status.Approved;\r\n            }\r\n        } else {\r\n            books[_bookId].noVotes++;\r\n            if (books[_bookId].noVotes >= books[_bookId].yesVotes) {\r\n                books[_bookId].status = Status.Rejected;\r\n            }\r\n        }\r\n    }\r\n\r\n    function getBook(uint _index) external view returns (Book memory) {\r\n        require(_index < books.length, \"Invalid index\");\r\n        return books[_index];\r\n    }\r\n\r\n    function getAllBooks() external view returns (Book[] memory) {\r\n        return books;\r\n    }\r\n\r\n    function getBooksCount() external view returns (uint) {\r\n        return books.length;\r\n    }\r\n}\r\n",
  "sourcePath": "C:\\Users\\ShreyK\\OneDrive\\Documents\\GitHub\\B2B\\Blockchain_LMS\\contracts\\BookManager.sol",
  "compiler": {
    "name": "solc",
    "version": "0.8.19+commit.7dd6d404.Emscripten.clang"
  },
  "schemaVersion": "3.4.16",
  "updatedAt": "2025-05-10T07:51:14.469Z",
  "networkType": "ethereum",
  "devdoc": {
    "kind": "dev",
    "methods": {},
    "version": 1
  },
  "userdoc": {
    "kind": "user",
    "methods": {},
    "version": 1
  }
}