{
  "contractName": "BorrowManager",
  "abi": [
    {
      "inputs": [
        {
          "internalType": "address",
          "name": "_userManager",
          "type": "address"
        },
        {
          "internalType": "address",
          "name": "_bookManager",
          "type": "address"
        }
      ],
      "stateMutability": "nonpayable",
      "type": "constructor"
    },
    {
      "inputs": [],
      "name": "bookManager",
      "outputs": [
        {
          "internalType": "contract BookManager",
          "name": "",
          "type": "address"
        }
      ],
      "stateMutability": "view",
      "type": "function",
      "constant": true
    },
    {
      "inputs": [
        {
          "internalType": "uint256",
          "name": "",
          "type": "uint256"
        }
      ],
      "name": "borrows",
      "outputs": [
        {
          "internalType": "address",
          "name": "user",
          "type": "address"
        },
        {
          "internalType": "uint256",
          "name": "bookId",
          "type": "uint256"
        },
        {
          "internalType": "uint256",
          "name": "borrowTime",
          "type": "uint256"
        },
        {
          "internalType": "uint256",
          "name": "returnTime",
          "type": "uint256"
        },
        {
          "internalType": "bool",
          "name": "returned",
          "type": "bool"
        }
      ],
      "stateMutability": "view",
      "type": "function",
      "constant": true
    },
    {
      "inputs": [
        {
          "internalType": "address",
          "name": "",
          "type": "address"
        },
        {
          "internalType": "uint256",
          "name": "",
          "type": "uint256"
        }
      ],
      "name": "hasBorrowed",
      "outputs": [
        {
          "internalType": "bool",
          "name": "",
          "type": "bool"
        }
      ],
      "stateMutability": "view",
      "type": "function",
      "constant": true
    },
    {
      "inputs": [],
      "name": "userManager",
      "outputs": [
        {
          "internalType": "contract UserManager",
          "name": "",
          "type": "address"
        }
      ],
      "stateMutability": "view",
      "type": "function",
      "constant": true
    },
    {
      "inputs": [
        {
          "internalType": "uint256",
          "name": "_bookId",
          "type": "uint256"
        },
        {
          "internalType": "address",
          "name": "_user",
          "type": "address"
        }
      ],
      "name": "borrowBook",
      "outputs": [],
      "stateMutability": "nonpayable",
      "type": "function"
    },
    {
      "inputs": [
        {
          "internalType": "uint256",
          "name": "_borrowId",
          "type": "uint256"
        }
      ],
      "name": "returnBook",
      "outputs": [],
      "stateMutability": "nonpayable",
      "type": "function"
    },
    {
      "inputs": [],
      "name": "getAllBorrows",
      "outputs": [
        {
          "components": [
            {
              "internalType": "address",
              "name": "user",
              "type": "address"
            },
            {
              "internalType": "uint256",
              "name": "bookId",
              "type": "uint256"
            },
            {
              "internalType": "uint256",
              "name": "borrowTime",
              "type": "uint256"
            },
            {
              "internalType": "uint256",
              "name": "returnTime",
              "type": "uint256"
            },
            {
              "internalType": "bool",
              "name": "returned",
              "type": "bool"
            }
          ],
          "internalType": "struct BorrowManager.Borrow[]",
          "name": "",
          "type": "tuple[]"
        }
      ],
      "stateMutability": "view",
      "type": "function",
      "constant": true
    },
    {
      "inputs": [],
      "name": "getBorrowsCount",
      "outputs": [
        {
          "internalType": "uint256",
          "name": "",
          "type": "uint256"
        }
      ],
      "stateMutability": "view",
      "type": "function",
      "constant": true
    }
  ],
  "bytecode": "0x60806040523480156200001157600080fd5b50604051620016693803806200166983398181016040528101906200003791906200012b565b81600260006101000a81548173ffffffffffffffffffffffffffffffffffffffff021916908373ffffffffffffffffffffffffffffffffffffffff16021790555080600360006101000a81548173ffffffffffffffffffffffffffffffffffffffff021916908373ffffffffffffffffffffffffffffffffffffffff160217905550505062000172565b600080fd5b600073ffffffffffffffffffffffffffffffffffffffff82169050919050565b6000620000f382620000c6565b9050919050565b6200010581620000e6565b81146200011157600080fd5b50565b6000815190506200012581620000fa565b92915050565b60008060408385031215620001455762000144620000c1565b5b6000620001558582860162000114565b9250506020620001688582860162000114565b9150509250929050565b6114e780620001826000396000f3fe608060405234801561001057600080fd5b50600436106100885760003560e01c80635c8a76871161005b5780635c8a768714610119578063b1aec0e214610137578063b638cf6b14610167578063ca5140c91461018557610088565b80630fdfaa031461008d578063191e9d7c146100ab5780633ba4d4ca146100df5780633f322bc9146100fb575b600080fd5b6100956101a1565b6040516100a29190610afe565b60405180910390f35b6100c560048036038101906100c09190610b60565b61028f565b6040516100d6959493929190610bba565b60405180910390f35b6100f960048036038101906100f49190610c39565b610302565b005b610103610704565b6040516101109190610cd8565b60405180910390f35b61012161072a565b60405161012e9190610d14565b60405180910390f35b610151600480360381019061014c9190610d2f565b610750565b60405161015e9190610d6f565b60405180910390f35b61016f61077f565b60405161017c9190610d8a565b60405180910390f35b61019f600480360381019061019a9190610b60565b61078b565b005b60606000805480602002602001604051908101604052809291908181526020016000905b8282101561028657838290600052602060002090600502016040518060a00160405290816000820160009054906101000a900473ffffffffffffffffffffffffffffffffffffffff1673ffffffffffffffffffffffffffffffffffffffff1673ffffffffffffffffffffffffffffffffffffffff1681526020016001820154815260200160028201548152602001600382015481526020016004820160009054906101000a900460ff161515151581525050815260200190600101906101c5565b50505050905090565b6000818154811061029f57600080fd5b90600052602060002090600502016000915090508060000160009054906101000a900473ffffffffffffffffffffffffffffffffffffffff16908060010154908060020154908060030154908060040160009054906101000a900460ff16905085565b6000600360009054906101000a900473ffffffffffffffffffffffffffffffffffffffff1673ffffffffffffffffffffffffffffffffffffffff1663e0ff5b8b846040518263ffffffff1660e01b815260040161035f9190610d8a565b600060405180830381865afa15801561037c573d6000803e3d6000fd5b505050506040513d6000823e3d601f19601f820116820180604052508101906103a59190611104565b90508060800151600260009054906101000a900473ffffffffffffffffffffffffffffffffffffffff1673ffffffffffffffffffffffffffffffffffffffff16634f3d520c846040518263ffffffff1660e01b8152600401610407919061114d565b602060405180830381865afa158015610424573d6000803e3d6000fd5b505050506040513d601f19601f82011682018060405250810190610448919061118d565b600481111561045a576104596111ba565b5b101561049b576040517f08c379a000000000000000000000000000000000000000000000000000000000815260040161049290611246565b60405180910390fd5b600160028111156104af576104ae6111ba565b5b8160c0015160028111156104c6576104c56111ba565b5b14610506576040517f08c379a00000000000000000000000000000000000000000000000000000000081526004016104fd906112b2565b60405180910390fd5b600160008373ffffffffffffffffffffffffffffffffffffffff1673ffffffffffffffffffffffffffffffffffffffff168152602001908152602001600020600084815260200190815260200160002060009054906101000a900460ff16156105a4576040517f08c379a000000000000000000000000000000000000000000000000000000000815260040161059b9061131e565b60405180910390fd5b60006040518060a001604052808473ffffffffffffffffffffffffffffffffffffffff1681526020018581526020014281526020016000815260200160001515815250908060018154018082558091505060019003906000526020600020906005020160009091909190915060008201518160000160006101000a81548173ffffffffffffffffffffffffffffffffffffffff021916908373ffffffffffffffffffffffffffffffffffffffff16021790555060208201518160010155604082015181600201556060820151816003015560808201518160040160006101000a81548160ff021916908315150217905550505060018060008473ffffffffffffffffffffffffffffffffffffffff1673ffffffffffffffffffffffffffffffffffffffff168152602001908152602001600020600085815260200190815260200160002060006101000a81548160ff021916908315150217905550505050565b600360009054906101000a900473ffffffffffffffffffffffffffffffffffffffff1681565b600260009054906101000a900473ffffffffffffffffffffffffffffffffffffffff1681565b60016020528160005260406000206020528060005260406000206000915091509054906101000a900460ff1681565b60008080549050905090565b60008054905081106107d2576040517f08c379a00000000000000000000000000000000000000000000000000000000081526004016107c99061138a565b60405180910390fd5b60008082815481106107e7576107e66113aa565b5b906000526020600020906005020190503373ffffffffffffffffffffffffffffffffffffffff168160000160009054906101000a900473ffffffffffffffffffffffffffffffffffffffff1673ffffffffffffffffffffffffffffffffffffffff1614610889576040517f08c379a000000000000000000000000000000000000000000000000000000000815260040161088090611425565b60405180910390fd5b8060040160009054906101000a900460ff16156108db576040517f08c379a00000000000000000000000000000000000000000000000000000000081526004016108d290611491565b60405180910390fd5b42816003018190555060018160040160006101000a81548160ff0219169083151502179055506000600160003373ffffffffffffffffffffffffffffffffffffffff1673ffffffffffffffffffffffffffffffffffffffff16815260200190815260200160002060008360010154815260200190815260200160002060006101000a81548160ff0219169083151502179055505050565b600081519050919050565b600082825260208201905092915050565b6000819050602082019050919050565b600073ffffffffffffffffffffffffffffffffffffffff82169050919050565b60006109c98261099e565b9050919050565b6109d9816109be565b82525050565b6000819050919050565b6109f2816109df565b82525050565b60008115159050919050565b610a0d816109f8565b82525050565b60a082016000820151610a2960008501826109d0565b506020820151610a3c60208501826109e9565b506040820151610a4f60408501826109e9565b506060820151610a6260608501826109e9565b506080820151610a756080850182610a04565b50505050565b6000610a878383610a13565b60a08301905092915050565b6000602082019050919050565b6000610aab82610972565b610ab5818561097d565b9350610ac08361098e565b8060005b83811015610af1578151610ad88882610a7b565b9750610ae383610a93565b925050600181019050610ac4565b5085935050505092915050565b60006020820190508181036000830152610b188184610aa0565b905092915050565b6000604051905090565b600080fd5b600080fd5b610b3d816109df565b8114610b4857600080fd5b50565b600081359050610b5a81610b34565b92915050565b600060208284031215610b7657610b75610b2a565b5b6000610b8484828501610b4b565b91505092915050565b610b96816109be565b82525050565b610ba5816109df565b82525050565b610bb4816109f8565b82525050565b600060a082019050610bcf6000830188610b8d565b610bdc6020830187610b9c565b610be96040830186610b9c565b610bf66060830185610b9c565b610c036080830184610bab565b9695505050505050565b610c16816109be565b8114610c2157600080fd5b50565b600081359050610c3381610c0d565b92915050565b60008060408385031215610c5057610c4f610b2a565b5b6000610c5e85828601610b4b565b9250506020610c6f85828601610c24565b9150509250929050565b6000819050919050565b6000610c9e610c99610c948461099e565b610c79565b61099e565b9050919050565b6000610cb082610c83565b9050919050565b6000610cc282610ca5565b9050919050565b610cd281610cb7565b82525050565b6000602082019050610ced6000830184610cc9565b92915050565b6000610cfe82610ca5565b9050919050565b610d0e81610cf3565b82525050565b6000602082019050610d296000830184610d05565b92915050565b60008060408385031215610d4657610d45610b2a565b5b6000610d5485828601610c24565b9250506020610d6585828601610b4b565b9150509250929050565b6000602082019050610d846000830184610bab565b92915050565b6000602082019050610d9f6000830184610b9c565b92915050565b600080fd5b6000601f19601f8301169050919050565b7f4e487b7100000000000000000000000000000000000000000000000000000000600052604160045260246000fd5b610df382610daa565b810181811067ffffffffffffffff82111715610e1257610e11610dbb565b5b80604052505050565b6000610e25610b20565b9050610e318282610dea565b919050565b600080fd5b6000819050919050565b610e4e81610e3b565b8114610e5957600080fd5b50565b600081519050610e6b81610e45565b92915050565b600080fd5b600080fd5b600067ffffffffffffffff821115610e9657610e95610dbb565b5b610e9f82610daa565b9050602081019050919050565b60005b83811015610eca578082015181840152602081019050610eaf565b60008484015250505050565b6000610ee9610ee484610e7b565b610e1b565b905082815260208101848484011115610f0557610f04610e76565b5b610f10848285610eac565b509392505050565b600082601f830112610f2d57610f2c610e71565b5b8151610f3d848260208601610ed6565b91505092915050565b600081519050610f5581610b34565b92915050565b60068110610f6857600080fd5b50565b600081519050610f7a81610f5b565b92915050565b60038110610f8d57600080fd5b50565b600081519050610f9f81610f80565b92915050565b600081519050610fb481610c0d565b92915050565b60006101408284031215610fd157610fd0610da5565b5b610fdc610140610e1b565b90506000610fec84828501610e5c565b600083015250602082015167ffffffffffffffff8111156110105761100f610e36565b5b61101c84828501610f18565b602083015250604082015167ffffffffffffffff8111156110405761103f610e36565b5b61104c84828501610f18565b604083015250606082015167ffffffffffffffff8111156110705761106f610e36565b5b61107c84828501610f18565b606083015250608061109084828501610f46565b60808301525060a06110a484828501610f6b565b60a08301525060c06110b884828501610f90565b60c08301525060e06110cc84828501610fa5565b60e0830152506101006110e184828501610f46565b610100830152506101206110f784828501610f46565b6101208301525092915050565b60006020828403121561111a57611119610b2a565b5b600082015167ffffffffffffffff81111561113857611137610b2f565b5b61114484828501610fba565b91505092915050565b60006020820190506111626000830184610b8d565b92915050565b6005811061117557600080fd5b50565b60008151905061118781611168565b92915050565b6000602082840312156111a3576111a2610b2a565b5b60006111b184828501611178565b91505092915050565b7f4e487b7100000000000000000000000000000000000000000000000000000000600052602160045260246000fd5b600082825260208201905092915050565b7f496e73756666696369656e7420636c656172616e636500000000000000000000600082015250565b60006112306016836111e9565b915061123b826111fa565b602082019050919050565b6000602082019050818103600083015261125f81611223565b9050919050565b7f426f6f6b206e6f7420617070726f766564000000000000000000000000000000600082015250565b600061129c6011836111e9565b91506112a782611266565b602082019050919050565b600060208201905081810360008301526112cb8161128f565b9050919050565b7f416c726561647920626f72726f77656400000000000000000000000000000000600082015250565b60006113086010836111e9565b9150611313826112d2565b602082019050919050565b60006020820190508181036000830152611337816112fb565b9050919050565b7f496e76616c696420626f72726f77204944000000000000000000000000000000600082015250565b60006113746011836111e9565b915061137f8261133e565b602082019050919050565b600060208201905081810360008301526113a381611367565b9050919050565b7f4e487b7100000000000000000000000000000000000000000000000000000000600052603260045260246000fd5b7f4e6f7420796f757220626f72726f77207265636f726400000000000000000000600082015250565b600061140f6016836111e9565b915061141a826113d9565b602082019050919050565b6000602082019050818103600083015261143e81611402565b9050919050565b7f416c72656164792072657475726e656400000000000000000000000000000000600082015250565b600061147b6010836111e9565b915061148682611445565b602082019050919050565b600060208201905081810360008301526114aa8161146e565b905091905056fea2646970667358221220c9b83d6cc0edaf0024f357dea29b341be6319d8889328e482176150c5ea35cbb64736f6c63430008130033",
  "immutableReferences": {},
  "source": "// SPDX-License-Identifier: MIT\r\npragma solidity ^0.8.19;\r\n\r\nimport \"./UserManager.sol\";\r\nimport \"./BookManager.sol\";\r\n\r\ncontract BorrowManager {\r\n    struct Borrow {\r\n        address user;\r\n        uint bookId;\r\n        uint borrowTime;\r\n        uint returnTime;\r\n        bool returned;\r\n    }\r\n\r\n    Borrow[] public borrows;\r\n    mapping(address => mapping(uint => bool)) public hasBorrowed;\r\n\r\n    UserManager public userManager;\r\n    BookManager public bookManager;\r\n\r\n    constructor(address _userManager, address _bookManager) {\r\n        userManager = UserManager(_userManager);\r\n        bookManager = BookManager(_bookManager);\r\n    }\r\n\r\n    function borrowBook(uint _bookId, address _user) public { \r\n        BookManager.Book memory book = bookManager.getBook(_bookId);\r\n        \r\n        require(uint(userManager.getClearance(_user)) >= book.requiredClearance, \"Insufficient clearance\");\r\n        \r\n        require(book.status == BookManager.Status.Approved, \"Book not approved\");\r\n        \r\n        require(!hasBorrowed[_user][_bookId], \"Already borrowed\");\r\n    \r\n        borrows.push(Borrow({\r\n            user: _user,  \r\n            bookId: _bookId,\r\n            borrowTime: block.timestamp,  \r\n            returnTime: 0,  \r\n            returned: false  \r\n        }));\r\n    \r\n        hasBorrowed[_user][_bookId] = true;\r\n    }\r\n\r\n\r\n    function returnBook(uint _borrowId) external {\r\n        require(_borrowId < borrows.length, \"Invalid borrow ID\");\r\n        Borrow storage borrow = borrows[_borrowId];\r\n\r\n        require(borrow.user == msg.sender, \"Not your borrow record\");\r\n        require(!borrow.returned, \"Already returned\");\r\n\r\n        borrow.returnTime = block.timestamp;\r\n        borrow.returned = true;\r\n        hasBorrowed[msg.sender][borrow.bookId] = false;\r\n    }\r\n\r\n    function getAllBorrows() external view returns (Borrow[] memory) {\r\n        return borrows;\r\n    }\r\n\r\n    function getBorrowsCount() external view returns (uint) {\r\n        return borrows.length;\r\n    }\r\n}\r\n",
  "sourcePath": "C:\\Users\\ShreyK\\OneDrive\\Documents\\GitHub\\B2B\\Blockchain_LMS\\contracts\\BorrowManager.sol",
  "compiler": {
    "name": "solc",
    "version": "0.8.19+commit.7dd6d404.Emscripten.clang"
  },
  "schemaVersion": "3.4.16",
  "updatedAt": "2025-05-10T21:39:28.056Z",
  "networkType": "ethereum",
  "devdoc": {
    "kind": "dev",
    "methods": {},
    "version": 1
  },
  "userdoc": {
    "kind": "user",
    "methods": {},
    "version": 1
  }
}