{
  "contractName": "BorrowManager",
  "abi": [
    {
      "inputs": [
        {
          "internalType": "address",
          "name": "userManagerAddress",
          "type": "address"
        },
        {
          "internalType": "address",
          "name": "bookManagerAddress",
          "type": "address"
        }
      ],
      "stateMutability": "nonpayable",
      "type": "constructor"
    },
    {
      "inputs": [],
      "name": "bookManager",
      "outputs": [
        {
          "internalType": "contract BookManager",
          "name": "",
          "type": "address"
        }
      ],
      "stateMutability": "view",
      "type": "function",
      "constant": true
    },
    {
      "inputs": [
        {
          "internalType": "uint256",
          "name": "",
          "type": "uint256"
        }
      ],
      "name": "borrows",
      "outputs": [
        {
          "internalType": "uint256",
          "name": "bookId",
          "type": "uint256"
        },
        {
          "internalType": "uint256",
          "name": "borrowTime",
          "type": "uint256"
        },
        {
          "internalType": "uint256",
          "name": "returnTime",
          "type": "uint256"
        },
        {
          "internalType": "address",
          "name": "borrower",
          "type": "address"
        }
      ],
      "stateMutability": "view",
      "type": "function",
      "constant": true
    },
    {
      "inputs": [],
      "name": "userManager",
      "outputs": [
        {
          "internalType": "contract UserManager",
          "name": "",
          "type": "address"
        }
      ],
      "stateMutability": "view",
      "type": "function",
      "constant": true
    },
    {
      "inputs": [
        {
          "internalType": "uint256",
          "name": "_bookId",
          "type": "uint256"
        }
      ],
      "name": "borrowBook",
      "outputs": [],
      "stateMutability": "nonpayable",
      "type": "function"
    },
    {
      "inputs": [
        {
          "internalType": "uint256",
          "name": "_borrowId",
          "type": "uint256"
        }
      ],
      "name": "returnBook",
      "outputs": [],
      "stateMutability": "nonpayable",
      "type": "function"
    },
    {
      "inputs": [
        {
          "internalType": "address",
          "name": "_user",
          "type": "address"
        }
      ],
      "name": "getUserBorrows",
      "outputs": [
        {
          "components": [
            {
              "internalType": "uint256",
              "name": "bookId",
              "type": "uint256"
            },
            {
              "internalType": "uint256",
              "name": "borrowTime",
              "type": "uint256"
            },
            {
              "internalType": "uint256",
              "name": "returnTime",
              "type": "uint256"
            },
            {
              "internalType": "address",
              "name": "borrower",
              "type": "address"
            }
          ],
          "internalType": "struct BorrowManager.BorrowInfo[]",
          "name": "",
          "type": "tuple[]"
        }
      ],
      "stateMutability": "view",
      "type": "function",
      "constant": true
    }
  ],
  "bytecode": "0x60806040523480156200001157600080fd5b50604051620013753803806200137583398181016040528101906200003791906200012b565b81600160006101000a81548173ffffffffffffffffffffffffffffffffffffffff021916908373ffffffffffffffffffffffffffffffffffffffff16021790555080600260006101000a81548173ffffffffffffffffffffffffffffffffffffffff021916908373ffffffffffffffffffffffffffffffffffffffff160217905550505062000172565b600080fd5b600073ffffffffffffffffffffffffffffffffffffffff82169050919050565b6000620000f382620000c6565b9050919050565b6200010581620000e6565b81146200011157600080fd5b50565b6000815190506200012581620000fa565b92915050565b60008060408385031215620001455762000144620000c1565b5b6000620001558582860162000114565b9250506020620001688582860162000114565b9150509250929050565b6111f380620001826000396000f3fe608060405234801561001057600080fd5b50600436106100625760003560e01c8063191e9d7c14610067578063338a19961461009a5780633f322bc9146100ca5780635c8a7687146100e85780637e490a9e14610106578063ca5140c914610122575b600080fd5b610081600480360381019061007c91906108cb565b61013e565b6040516100919493929190610948565b60405180910390f35b6100b460048036038101906100af91906109b9565b61019e565b6040516100c19190610b08565b60405180910390f35b6100d261041a565b6040516100df9190610b89565b60405180910390f35b6100f0610440565b6040516100fd9190610bc5565b60405180910390f35b610120600480360381019061011b91906108cb565b610466565b005b61013c600480360381019061013791906108cb565b610738565b005b6000818154811061014e57600080fd5b90600052602060002090600402016000915090508060000154908060010154908060020154908060030160009054906101000a900473ffffffffffffffffffffffffffffffffffffffff16905084565b60606000805b60008054905081101561024b578373ffffffffffffffffffffffffffffffffffffffff16600082815481106101dc576101db610be0565b5b906000526020600020906004020160030160009054906101000a900473ffffffffffffffffffffffffffffffffffffffff1673ffffffffffffffffffffffffffffffffffffffff160361023857818061023490610c3e565b9250505b808061024390610c3e565b9150506101a4565b5060008167ffffffffffffffff81111561026857610267610c86565b5b6040519080825280602002602001820160405280156102a157816020015b61028e610843565b8152602001906001900390816102865790505b5090506000805b60008054905081101561040e578573ffffffffffffffffffffffffffffffffffffffff16600082815481106102e0576102df610be0565b5b906000526020600020906004020160030160009054906101000a900473ffffffffffffffffffffffffffffffffffffffff1673ffffffffffffffffffffffffffffffffffffffff16036103fb576000818154811061034157610340610be0565b5b90600052602060002090600402016040518060800160405290816000820154815260200160018201548152602001600282015481526020016003820160009054906101000a900473ffffffffffffffffffffffffffffffffffffffff1673ffffffffffffffffffffffffffffffffffffffff1673ffffffffffffffffffffffffffffffffffffffff16815250508383815181106103e1576103e0610be0565b5b602002602001018190525081806103f790610c3e565b9250505b808061040690610c3e565b9150506102a8565b50819350505050919050565b600260009054906101000a900473ffffffffffffffffffffffffffffffffffffffff1681565b600160009054906101000a900473ffffffffffffffffffffffffffffffffffffffff1681565b6000600260009054906101000a900473ffffffffffffffffffffffffffffffffffffffff1673ffffffffffffffffffffffffffffffffffffffff1663e0ff5b8b836040518263ffffffff1660e01b81526004016104c39190610cb5565b600060405180830381865afa1580156104e0573d6000803e3d6000fd5b505050506040513d6000823e3d601f19601f820116820180604052508101906105099190610f17565b90506001600281111561051f5761051e610f60565b5b8160400151600281111561053657610535610f60565b5b14610576576040517f08c379a000000000000000000000000000000000000000000000000000000000815260040161056d90610fec565b60405180910390fd5b8060200151600160009054906101000a900473ffffffffffffffffffffffffffffffffffffffff1673ffffffffffffffffffffffffffffffffffffffff16634f3d520c336040518263ffffffff1660e01b81526004016105d6919061100c565b602060405180830381865afa1580156105f3573d6000803e3d6000fd5b505050506040513d601f19601f82011682018060405250810190610617919061104c565b600381111561062957610628610f60565b5b101561066a576040517f08c379a0000000000000000000000000000000000000000000000000000000008152600401610661906110c5565b60405180910390fd5b60006040518060800160405280848152602001428152602001600081526020013373ffffffffffffffffffffffffffffffffffffffff16815250908060018154018082558091505060019003906000526020600020906004020160009091909190915060008201518160000155602082015181600101556040820151816002015560608201518160030160006101000a81548173ffffffffffffffffffffffffffffffffffffffff021916908373ffffffffffffffffffffffffffffffffffffffff16021790555050505050565b600080828154811061074d5761074c610be0565b5b906000526020600020906004020190503373ffffffffffffffffffffffffffffffffffffffff168160030160009054906101000a900473ffffffffffffffffffffffffffffffffffffffff1673ffffffffffffffffffffffffffffffffffffffff16146107ef576040517f08c379a00000000000000000000000000000000000000000000000000000000081526004016107e690611131565b60405180910390fd5b6000816002015414610836576040517f08c379a000000000000000000000000000000000000000000000000000000000815260040161082d9061119d565b60405180910390fd5b4281600201819055505050565b6040518060800160405280600081526020016000815260200160008152602001600073ffffffffffffffffffffffffffffffffffffffff1681525090565b6000604051905090565b600080fd5b600080fd5b6000819050919050565b6108a881610895565b81146108b357600080fd5b50565b6000813590506108c58161089f565b92915050565b6000602082840312156108e1576108e061088b565b5b60006108ef848285016108b6565b91505092915050565b61090181610895565b82525050565b600073ffffffffffffffffffffffffffffffffffffffff82169050919050565b600061093282610907565b9050919050565b61094281610927565b82525050565b600060808201905061095d60008301876108f8565b61096a60208301866108f8565b61097760408301856108f8565b6109846060830184610939565b95945050505050565b61099681610927565b81146109a157600080fd5b50565b6000813590506109b38161098d565b92915050565b6000602082840312156109cf576109ce61088b565b5b60006109dd848285016109a4565b91505092915050565b600081519050919050565b600082825260208201905092915050565b6000819050602082019050919050565b610a1b81610895565b82525050565b610a2a81610927565b82525050565b608082016000820151610a466000850182610a12565b506020820151610a596020850182610a12565b506040820151610a6c6040850182610a12565b506060820151610a7f6060850182610a21565b50505050565b6000610a918383610a30565b60808301905092915050565b6000602082019050919050565b6000610ab5826109e6565b610abf81856109f1565b9350610aca83610a02565b8060005b83811015610afb578151610ae28882610a85565b9750610aed83610a9d565b925050600181019050610ace565b5085935050505092915050565b60006020820190508181036000830152610b228184610aaa565b905092915050565b6000819050919050565b6000610b4f610b4a610b4584610907565b610b2a565b610907565b9050919050565b6000610b6182610b34565b9050919050565b6000610b7382610b56565b9050919050565b610b8381610b68565b82525050565b6000602082019050610b9e6000830184610b7a565b92915050565b6000610baf82610b56565b9050919050565b610bbf81610ba4565b82525050565b6000602082019050610bda6000830184610bb6565b92915050565b7f4e487b7100000000000000000000000000000000000000000000000000000000600052603260045260246000fd5b7f4e487b7100000000000000000000000000000000000000000000000000000000600052601160045260246000fd5b6000610c4982610895565b91507fffffffffffffffffffffffffffffffffffffffffffffffffffffffffffffffff8203610c7b57610c7a610c0f565b5b600182019050919050565b7f4e487b7100000000000000000000000000000000000000000000000000000000600052604160045260246000fd5b6000602082019050610cca60008301846108f8565b92915050565b600080fd5b6000601f19601f8301169050919050565b610cef82610cd5565b810181811067ffffffffffffffff82111715610d0e57610d0d610c86565b5b80604052505050565b6000610d21610881565b9050610d2d8282610ce6565b919050565b600080fd5b600080fd5b600080fd5b600067ffffffffffffffff821115610d5c57610d5b610c86565b5b610d6582610cd5565b9050602081019050919050565b60005b83811015610d90578082015181840152602081019050610d75565b60008484015250505050565b6000610daf610daa84610d41565b610d17565b905082815260208101848484011115610dcb57610dca610d3c565b5b610dd6848285610d72565b509392505050565b600082601f830112610df357610df2610d37565b5b8151610e03848260208601610d9c565b91505092915050565b600081519050610e1b8161089f565b92915050565b60038110610e2e57600080fd5b50565b600081519050610e4081610e21565b92915050565b600081519050610e558161098d565b92915050565b600060c08284031215610e7157610e70610cd0565b5b610e7b60c0610d17565b9050600082015167ffffffffffffffff811115610e9b57610e9a610d32565b5b610ea784828501610dde565b6000830152506020610ebb84828501610e0c565b6020830152506040610ecf84828501610e31565b6040830152506060610ee384828501610e46565b6060830152506080610ef784828501610e0c565b60808301525060a0610f0b84828501610e0c565b60a08301525092915050565b600060208284031215610f2d57610f2c61088b565b5b600082015167ffffffffffffffff811115610f4b57610f4a610890565b5b610f5784828501610e5b565b91505092915050565b7f4e487b7100000000000000000000000000000000000000000000000000000000600052602160045260246000fd5b600082825260208201905092915050565b7f426f6f6b206e6f7420617070726f766564000000000000000000000000000000600082015250565b6000610fd6601183610f8f565b9150610fe182610fa0565b602082019050919050565b6000602082019050818103600083015261100581610fc9565b9050919050565b60006020820190506110216000830184610939565b92915050565b6004811061103457600080fd5b50565b60008151905061104681611027565b92915050565b6000602082840312156110625761106161088b565b5b600061107084828501611037565b91505092915050565b7f4e6f7420656e6f75676820636c656172616e636520746f20626f72726f770000600082015250565b60006110af601e83610f8f565b91506110ba82611079565b602082019050919050565b600060208201905081810360008301526110de816110a2565b9050919050565b7f4e6f7420796f757220626f72726f77207265636f726400000000000000000000600082015250565b600061111b601683610f8f565b9150611126826110e5565b602082019050919050565b6000602082019050818103600083015261114a8161110e565b9050919050565b7f416c72656164792072657475726e656400000000000000000000000000000000600082015250565b6000611187601083610f8f565b915061119282611151565b602082019050919050565b600060208201905081810360008301526111b68161117a565b905091905056fea26469706673582212206cef9ca3b8a4979d819fa05ffe29d7e1ef9a776140d3986346a5bf429162915b64736f6c63430008130033",
  "immutableReferences": {},
  "source": "// SPDX-License-Identifier: MIT\r\npragma solidity ^0.8.19;\r\n\r\nimport \"./UserManager.sol\";\r\nimport \"./BookManager.sol\";\r\n\r\ncontract BorrowManager {\r\n    struct BorrowInfo {\r\n        uint bookId;\r\n        uint borrowTime;\r\n        uint returnTime;\r\n        address borrower;\r\n    }\r\n\r\n    BorrowInfo[] public borrows;\r\n    UserManager public userManager;\r\n    BookManager public bookManager;\r\n\r\n    constructor(address userManagerAddress, address bookManagerAddress) {\r\n        userManager = UserManager(userManagerAddress);\r\n        bookManager = BookManager(bookManagerAddress);\r\n    }\r\n\r\n    function borrowBook(uint _bookId) external {\r\n        BookManager.Book memory book = bookManager.getBook(_bookId);\r\n\r\n        require(book.status == BookManager.Status.Approved, \"Book not approved\");\r\n        require(uint(userManager.getClearance(msg.sender)) >= book.requiredClearance, \"Not enough clearance to borrow\");\r\n\r\n        borrows.push(BorrowInfo(_bookId, block.timestamp, 0, msg.sender));\r\n    }\r\n\r\n    function returnBook(uint _borrowId) external {\r\n        BorrowInfo storage borrowInfo = borrows[_borrowId];\r\n\r\n        require(borrowInfo.borrower == msg.sender, \"Not your borrow record\");\r\n        require(borrowInfo.returnTime == 0, \"Already returned\");\r\n\r\n        borrowInfo.returnTime = block.timestamp;\r\n    }\r\n\r\n    function getUserBorrows(address _user) external view returns (BorrowInfo[] memory) {\r\n        uint count = 0;\r\n        for (uint i = 0; i < borrows.length; i++) {\r\n            if (borrows[i].borrower == _user) {\r\n                count++;\r\n            }\r\n        }\r\n\r\n        BorrowInfo[] memory result = new BorrowInfo[](count);\r\n        uint index = 0;\r\n        for (uint i = 0; i < borrows.length; i++) {\r\n            if (borrows[i].borrower == _user) {\r\n                result[index] = borrows[i];\r\n                index++;\r\n            }\r\n        }\r\n        return result;\r\n    }\r\n}\r\n",
  "sourcePath": "C:\\Users\\ShreyK\\OneDrive\\Documents\\GitHub\\B2B\\Blockchain_LMS\\contracts\\BorrowManager.sol",
  "compiler": {
    "name": "solc",
    "version": "0.8.19+commit.7dd6d404.Emscripten.clang"
  },
  "schemaVersion": "3.4.16",
  "updatedAt": "2025-05-09T07:16:17.350Z",
  "networkType": "ethereum",
  "devdoc": {
    "kind": "dev",
    "methods": {},
    "version": 1
  },
  "userdoc": {
    "kind": "user",
    "methods": {},
    "version": 1
  }
}