{
  "contractName": "BorrowManager",
  "abi": [
    {
      "inputs": [
        {
          "internalType": "address",
          "name": "_userManager",
          "type": "address"
        },
        {
          "internalType": "address",
          "name": "_bookManager",
          "type": "address"
        }
      ],
      "stateMutability": "nonpayable",
      "type": "constructor"
    },
    {
      "inputs": [],
      "name": "bookManager",
      "outputs": [
        {
          "internalType": "contract BookManager",
          "name": "",
          "type": "address"
        }
      ],
      "stateMutability": "view",
      "type": "function",
      "constant": true
    },
    {
      "inputs": [
        {
          "internalType": "uint256",
          "name": "",
          "type": "uint256"
        }
      ],
      "name": "borrows",
      "outputs": [
        {
          "internalType": "address",
          "name": "user",
          "type": "address"
        },
        {
          "internalType": "uint256",
          "name": "bookId",
          "type": "uint256"
        },
        {
          "internalType": "uint256",
          "name": "borrowTime",
          "type": "uint256"
        },
        {
          "internalType": "uint256",
          "name": "returnTime",
          "type": "uint256"
        },
        {
          "internalType": "bool",
          "name": "returned",
          "type": "bool"
        }
      ],
      "stateMutability": "view",
      "type": "function",
      "constant": true
    },
    {
      "inputs": [
        {
          "internalType": "address",
          "name": "",
          "type": "address"
        },
        {
          "internalType": "uint256",
          "name": "",
          "type": "uint256"
        }
      ],
      "name": "hasBorrowed",
      "outputs": [
        {
          "internalType": "bool",
          "name": "",
          "type": "bool"
        }
      ],
      "stateMutability": "view",
      "type": "function",
      "constant": true
    },
    {
      "inputs": [],
      "name": "userManager",
      "outputs": [
        {
          "internalType": "contract UserManager",
          "name": "",
          "type": "address"
        }
      ],
      "stateMutability": "view",
      "type": "function",
      "constant": true
    },
    {
      "inputs": [
        {
          "internalType": "uint256",
          "name": "_bookId",
          "type": "uint256"
        }
      ],
      "name": "borrowBook",
      "outputs": [],
      "stateMutability": "nonpayable",
      "type": "function"
    },
    {
      "inputs": [
        {
          "internalType": "uint256",
          "name": "_borrowId",
          "type": "uint256"
        }
      ],
      "name": "returnBook",
      "outputs": [],
      "stateMutability": "nonpayable",
      "type": "function"
    },
    {
      "inputs": [],
      "name": "getAllBorrows",
      "outputs": [
        {
          "components": [
            {
              "internalType": "address",
              "name": "user",
              "type": "address"
            },
            {
              "internalType": "uint256",
              "name": "bookId",
              "type": "uint256"
            },
            {
              "internalType": "uint256",
              "name": "borrowTime",
              "type": "uint256"
            },
            {
              "internalType": "uint256",
              "name": "returnTime",
              "type": "uint256"
            },
            {
              "internalType": "bool",
              "name": "returned",
              "type": "bool"
            }
          ],
          "internalType": "struct BorrowManager.Borrow[]",
          "name": "",
          "type": "tuple[]"
        }
      ],
      "stateMutability": "view",
      "type": "function",
      "constant": true
    },
    {
      "inputs": [],
      "name": "getBorrowsCount",
      "outputs": [
        {
          "internalType": "uint256",
          "name": "",
          "type": "uint256"
        }
      ],
      "stateMutability": "view",
      "type": "function",
      "constant": true
    }
  ],
  "bytecode": "0x60806040523480156200001157600080fd5b50604051620016283803806200162883398181016040528101906200003791906200012b565b81600260006101000a81548173ffffffffffffffffffffffffffffffffffffffff021916908373ffffffffffffffffffffffffffffffffffffffff16021790555080600360006101000a81548173ffffffffffffffffffffffffffffffffffffffff021916908373ffffffffffffffffffffffffffffffffffffffff160217905550505062000172565b600080fd5b600073ffffffffffffffffffffffffffffffffffffffff82169050919050565b6000620000f382620000c6565b9050919050565b6200010581620000e6565b81146200011157600080fd5b50565b6000815190506200012581620000fa565b92915050565b60008060408385031215620001455762000144620000c1565b5b6000620001558582860162000114565b9250506020620001688582860162000114565b9150509250929050565b6114a680620001826000396000f3fe608060405234801561001057600080fd5b50600436106100885760003560e01c80637e490a9e1161005b5780637e490a9e1461011b578063b1aec0e214610137578063b638cf6b14610167578063ca5140c91461018557610088565b80630fdfaa031461008d578063191e9d7c146100ab5780633f322bc9146100df5780635c8a7687146100fd575b600080fd5b6100956101a1565b6040516100a29190610afd565b60405180910390f35b6100c560048036038101906100c09190610b5f565b61028f565b6040516100d6959493929190610bb9565b60405180910390f35b6100e7610302565b6040516100f49190610c6b565b60405180910390f35b610105610328565b6040516101129190610ca7565b60405180910390f35b61013560048036038101906101309190610b5f565b61034e565b005b610151600480360381019061014c9190610cee565b61074f565b60405161015e9190610d2e565b60405180910390f35b61016f61077e565b60405161017c9190610d49565b60405180910390f35b61019f600480360381019061019a9190610b5f565b61078a565b005b60606000805480602002602001604051908101604052809291908181526020016000905b8282101561028657838290600052602060002090600502016040518060a00160405290816000820160009054906101000a900473ffffffffffffffffffffffffffffffffffffffff1673ffffffffffffffffffffffffffffffffffffffff1673ffffffffffffffffffffffffffffffffffffffff1681526020016001820154815260200160028201548152602001600382015481526020016004820160009054906101000a900460ff161515151581525050815260200190600101906101c5565b50505050905090565b6000818154811061029f57600080fd5b90600052602060002090600502016000915090508060000160009054906101000a900473ffffffffffffffffffffffffffffffffffffffff16908060010154908060020154908060030154908060040160009054906101000a900460ff16905085565b600360009054906101000a900473ffffffffffffffffffffffffffffffffffffffff1681565b600260009054906101000a900473ffffffffffffffffffffffffffffffffffffffff1681565b6000600360009054906101000a900473ffffffffffffffffffffffffffffffffffffffff1673ffffffffffffffffffffffffffffffffffffffff1663e0ff5b8b836040518263ffffffff1660e01b81526004016103ab9190610d49565b600060405180830381865afa1580156103c8573d6000803e3d6000fd5b505050506040513d6000823e3d601f19601f820116820180604052508101906103f191906110c3565b90508060800151600260009054906101000a900473ffffffffffffffffffffffffffffffffffffffff1673ffffffffffffffffffffffffffffffffffffffff16634f3d520c336040518263ffffffff1660e01b8152600401610453919061110c565b602060405180830381865afa158015610470573d6000803e3d6000fd5b505050506040513d601f19601f82011682018060405250810190610494919061114c565b60048111156104a6576104a5611179565b5b10156104e7576040517f08c379a00000000000000000000000000000000000000000000000000000000081526004016104de90611205565b60405180910390fd5b600160028111156104fb576104fa611179565b5b8160c00151600281111561051257610511611179565b5b14610552576040517f08c379a000000000000000000000000000000000000000000000000000000000815260040161054990611271565b60405180910390fd5b600160003373ffffffffffffffffffffffffffffffffffffffff1673ffffffffffffffffffffffffffffffffffffffff168152602001908152602001600020600083815260200190815260200160002060009054906101000a900460ff16156105f0576040517f08c379a00000000000000000000000000000000000000000000000000000000081526004016105e7906112dd565b60405180910390fd5b60006040518060a001604052803373ffffffffffffffffffffffffffffffffffffffff1681526020018481526020014281526020016000815260200160001515815250908060018154018082558091505060019003906000526020600020906005020160009091909190915060008201518160000160006101000a81548173ffffffffffffffffffffffffffffffffffffffff021916908373ffffffffffffffffffffffffffffffffffffffff16021790555060208201518160010155604082015181600201556060820151816003015560808201518160040160006101000a81548160ff021916908315150217905550505060018060003373ffffffffffffffffffffffffffffffffffffffff1673ffffffffffffffffffffffffffffffffffffffff168152602001908152602001600020600084815260200190815260200160002060006101000a81548160ff0219169083151502179055505050565b60016020528160005260406000206020528060005260406000206000915091509054906101000a900460ff1681565b60008080549050905090565b60008054905081106107d1576040517f08c379a00000000000000000000000000000000000000000000000000000000081526004016107c890611349565b60405180910390fd5b60008082815481106107e6576107e5611369565b5b906000526020600020906005020190503373ffffffffffffffffffffffffffffffffffffffff168160000160009054906101000a900473ffffffffffffffffffffffffffffffffffffffff1673ffffffffffffffffffffffffffffffffffffffff1614610888576040517f08c379a000000000000000000000000000000000000000000000000000000000815260040161087f906113e4565b60405180910390fd5b8060040160009054906101000a900460ff16156108da576040517f08c379a00000000000000000000000000000000000000000000000000000000081526004016108d190611450565b60405180910390fd5b42816003018190555060018160040160006101000a81548160ff0219169083151502179055506000600160003373ffffffffffffffffffffffffffffffffffffffff1673ffffffffffffffffffffffffffffffffffffffff16815260200190815260200160002060008360010154815260200190815260200160002060006101000a81548160ff0219169083151502179055505050565b600081519050919050565b600082825260208201905092915050565b6000819050602082019050919050565b600073ffffffffffffffffffffffffffffffffffffffff82169050919050565b60006109c88261099d565b9050919050565b6109d8816109bd565b82525050565b6000819050919050565b6109f1816109de565b82525050565b60008115159050919050565b610a0c816109f7565b82525050565b60a082016000820151610a2860008501826109cf565b506020820151610a3b60208501826109e8565b506040820151610a4e60408501826109e8565b506060820151610a6160608501826109e8565b506080820151610a746080850182610a03565b50505050565b6000610a868383610a12565b60a08301905092915050565b6000602082019050919050565b6000610aaa82610971565b610ab4818561097c565b9350610abf8361098d565b8060005b83811015610af0578151610ad78882610a7a565b9750610ae283610a92565b925050600181019050610ac3565b5085935050505092915050565b60006020820190508181036000830152610b178184610a9f565b905092915050565b6000604051905090565b600080fd5b600080fd5b610b3c816109de565b8114610b4757600080fd5b50565b600081359050610b5981610b33565b92915050565b600060208284031215610b7557610b74610b29565b5b6000610b8384828501610b4a565b91505092915050565b610b95816109bd565b82525050565b610ba4816109de565b82525050565b610bb3816109f7565b82525050565b600060a082019050610bce6000830188610b8c565b610bdb6020830187610b9b565b610be86040830186610b9b565b610bf56060830185610b9b565b610c026080830184610baa565b9695505050505050565b6000819050919050565b6000610c31610c2c610c278461099d565b610c0c565b61099d565b9050919050565b6000610c4382610c16565b9050919050565b6000610c5582610c38565b9050919050565b610c6581610c4a565b82525050565b6000602082019050610c806000830184610c5c565b92915050565b6000610c9182610c38565b9050919050565b610ca181610c86565b82525050565b6000602082019050610cbc6000830184610c98565b92915050565b610ccb816109bd565b8114610cd657600080fd5b50565b600081359050610ce881610cc2565b92915050565b60008060408385031215610d0557610d04610b29565b5b6000610d1385828601610cd9565b9250506020610d2485828601610b4a565b9150509250929050565b6000602082019050610d436000830184610baa565b92915050565b6000602082019050610d5e6000830184610b9b565b92915050565b600080fd5b6000601f19601f8301169050919050565b7f4e487b7100000000000000000000000000000000000000000000000000000000600052604160045260246000fd5b610db282610d69565b810181811067ffffffffffffffff82111715610dd157610dd0610d7a565b5b80604052505050565b6000610de4610b1f565b9050610df08282610da9565b919050565b600080fd5b6000819050919050565b610e0d81610dfa565b8114610e1857600080fd5b50565b600081519050610e2a81610e04565b92915050565b600080fd5b600080fd5b600067ffffffffffffffff821115610e5557610e54610d7a565b5b610e5e82610d69565b9050602081019050919050565b60005b83811015610e89578082015181840152602081019050610e6e565b60008484015250505050565b6000610ea8610ea384610e3a565b610dda565b905082815260208101848484011115610ec457610ec3610e35565b5b610ecf848285610e6b565b509392505050565b600082601f830112610eec57610eeb610e30565b5b8151610efc848260208601610e95565b91505092915050565b600081519050610f1481610b33565b92915050565b60068110610f2757600080fd5b50565b600081519050610f3981610f1a565b92915050565b60038110610f4c57600080fd5b50565b600081519050610f5e81610f3f565b92915050565b600081519050610f7381610cc2565b92915050565b60006101408284031215610f9057610f8f610d64565b5b610f9b610140610dda565b90506000610fab84828501610e1b565b600083015250602082015167ffffffffffffffff811115610fcf57610fce610df5565b5b610fdb84828501610ed7565b602083015250604082015167ffffffffffffffff811115610fff57610ffe610df5565b5b61100b84828501610ed7565b604083015250606082015167ffffffffffffffff81111561102f5761102e610df5565b5b61103b84828501610ed7565b606083015250608061104f84828501610f05565b60808301525060a061106384828501610f2a565b60a08301525060c061107784828501610f4f565b60c08301525060e061108b84828501610f64565b60e0830152506101006110a084828501610f05565b610100830152506101206110b684828501610f05565b6101208301525092915050565b6000602082840312156110d9576110d8610b29565b5b600082015167ffffffffffffffff8111156110f7576110f6610b2e565b5b61110384828501610f79565b91505092915050565b60006020820190506111216000830184610b8c565b92915050565b6005811061113457600080fd5b50565b60008151905061114681611127565b92915050565b60006020828403121561116257611161610b29565b5b600061117084828501611137565b91505092915050565b7f4e487b7100000000000000000000000000000000000000000000000000000000600052602160045260246000fd5b600082825260208201905092915050565b7f496e73756666696369656e7420636c656172616e636500000000000000000000600082015250565b60006111ef6016836111a8565b91506111fa826111b9565b602082019050919050565b6000602082019050818103600083015261121e816111e2565b9050919050565b7f426f6f6b206e6f7420617070726f766564000000000000000000000000000000600082015250565b600061125b6011836111a8565b915061126682611225565b602082019050919050565b6000602082019050818103600083015261128a8161124e565b9050919050565b7f416c726561647920626f72726f77656400000000000000000000000000000000600082015250565b60006112c76010836111a8565b91506112d282611291565b602082019050919050565b600060208201905081810360008301526112f6816112ba565b9050919050565b7f496e76616c696420626f72726f77204944000000000000000000000000000000600082015250565b60006113336011836111a8565b915061133e826112fd565b602082019050919050565b6000602082019050818103600083015261136281611326565b9050919050565b7f4e487b7100000000000000000000000000000000000000000000000000000000600052603260045260246000fd5b7f4e6f7420796f757220626f72726f77207265636f726400000000000000000000600082015250565b60006113ce6016836111a8565b91506113d982611398565b602082019050919050565b600060208201905081810360008301526113fd816113c1565b9050919050565b7f416c72656164792072657475726e656400000000000000000000000000000000600082015250565b600061143a6010836111a8565b915061144582611404565b602082019050919050565b600060208201905081810360008301526114698161142d565b905091905056fea26469706673582212201601548841a86402be59c12ba8ae6f9d9f371cb53ea827ea5873df2669c9b18964736f6c63430008130033",
  "immutableReferences": {},
  "source": "// SPDX-License-Identifier: MIT\r\npragma solidity ^0.8.19;\r\n\r\nimport \"./UserManager.sol\";\r\nimport \"./BookManager.sol\";\r\n\r\ncontract BorrowManager {\r\n    struct Borrow {\r\n        address user;\r\n        uint bookId;\r\n        uint borrowTime;\r\n        uint returnTime;\r\n        bool returned;\r\n    }\r\n\r\n    Borrow[] public borrows;\r\n    mapping(address => mapping(uint => bool)) public hasBorrowed;\r\n\r\n    UserManager public userManager;\r\n    BookManager public bookManager;\r\n\r\n    constructor(address _userManager, address _bookManager) {\r\n        userManager = UserManager(_userManager);\r\n        bookManager = BookManager(_bookManager);\r\n    }\r\n\r\n    function borrowBook(uint _bookId) external {\r\n        BookManager.Book memory book = bookManager.getBook(_bookId);\r\n        require(uint(userManager.getClearance(msg.sender)) >= book.requiredClearance, \"Insufficient clearance\");\r\n        require(book.status == BookManager.Status.Approved, \"Book not approved\");\r\n        require(!hasBorrowed[msg.sender][_bookId], \"Already borrowed\");\r\n\r\n        borrows.push(Borrow({\r\n            user: msg.sender,\r\n            bookId: _bookId,\r\n            borrowTime: block.timestamp,\r\n            returnTime: 0,\r\n            returned: false\r\n        }));\r\n\r\n        hasBorrowed[msg.sender][_bookId] = true;\r\n    }\r\n\r\n    function returnBook(uint _borrowId) external {\r\n        require(_borrowId < borrows.length, \"Invalid borrow ID\");\r\n        Borrow storage borrow = borrows[_borrowId];\r\n\r\n        require(borrow.user == msg.sender, \"Not your borrow record\");\r\n        require(!borrow.returned, \"Already returned\");\r\n\r\n        borrow.returnTime = block.timestamp;\r\n        borrow.returned = true;\r\n        hasBorrowed[msg.sender][borrow.bookId] = false;\r\n    }\r\n\r\n    function getAllBorrows() external view returns (Borrow[] memory) {\r\n        return borrows;\r\n    }\r\n\r\n    function getBorrowsCount() external view returns (uint) {\r\n        return borrows.length;\r\n    }\r\n}\r\n",
  "sourcePath": "C:\\Users\\ShreyK\\OneDrive\\Documents\\GitHub\\B2B\\Blockchain_LMS\\contracts\\BorrowManager.sol",
  "compiler": {
    "name": "solc",
    "version": "0.8.19+commit.7dd6d404.Emscripten.clang"
  },
  "schemaVersion": "3.4.16",
  "updatedAt": "2025-05-10T14:42:09.365Z",
  "networkType": "ethereum",
  "devdoc": {
    "kind": "dev",
    "methods": {},
    "version": 1
  },
  "userdoc": {
    "kind": "user",
    "methods": {},
    "version": 1
  }
}