{
  "contractName": "UserManager",
  "abi": [
    {
      "inputs": [],
      "stateMutability": "nonpayable",
      "type": "constructor"
    },
    {
      "inputs": [],
      "name": "admin",
      "outputs": [
        {
          "internalType": "address",
          "name": "",
          "type": "address"
        }
      ],
      "stateMutability": "view",
      "type": "function",
      "constant": true
    },
    {
      "inputs": [
        {
          "internalType": "address",
          "name": "",
          "type": "address"
        }
      ],
      "name": "userClearance",
      "outputs": [
        {
          "internalType": "enum UserManager.Clearance",
          "name": "",
          "type": "uint8"
        }
      ],
      "stateMutability": "view",
      "type": "function",
      "constant": true
    },
    {
      "inputs": [
        {
          "internalType": "address",
          "name": "_user",
          "type": "address"
        },
        {
          "internalType": "enum UserManager.Clearance",
          "name": "_level",
          "type": "uint8"
        }
      ],
      "name": "setClearance",
      "outputs": [],
      "stateMutability": "nonpayable",
      "type": "function"
    },
    {
      "inputs": [
        {
          "internalType": "address",
          "name": "_user",
          "type": "address"
        }
      ],
      "name": "getClearance",
      "outputs": [
        {
          "internalType": "enum UserManager.Clearance",
          "name": "",
          "type": "uint8"
        }
      ],
      "stateMutability": "view",
      "type": "function",
      "constant": true
    }
  ],
  "bytecode": "0x608060405234801561001057600080fd5b50336000806101000a81548173ffffffffffffffffffffffffffffffffffffffff021916908373ffffffffffffffffffffffffffffffffffffffff160217905550610508806100606000396000f3fe608060405234801561001057600080fd5b506004361061004c5760003560e01c80634f3d520c14610051578063a7d22d4514610081578063c7353b551461009d578063f851a440146100cd575b600080fd5b61006b600480360381019061006691906102e1565b6100eb565b6040516100789190610385565b60405180910390f35b61009b600480360381019061009691906103c5565b610141565b005b6100b760048036038101906100b291906102e1565b61023a565b6040516100c49190610385565b60405180910390f35b6100d561025a565b6040516100e29190610414565b60405180910390f35b6000600160008373ffffffffffffffffffffffffffffffffffffffff1673ffffffffffffffffffffffffffffffffffffffff16815260200190815260200160002060009054906101000a900460ff169050919050565b60008054906101000a900473ffffffffffffffffffffffffffffffffffffffff1673ffffffffffffffffffffffffffffffffffffffff163373ffffffffffffffffffffffffffffffffffffffff16146101cf576040517f08c379a00000000000000000000000000000000000000000000000000000000081526004016101c6906104b2565b60405180910390fd5b80600160008473ffffffffffffffffffffffffffffffffffffffff1673ffffffffffffffffffffffffffffffffffffffff16815260200190815260200160002060006101000a81548160ff021916908360038111156102315761023061030e565b5b02179055505050565b60016020528060005260406000206000915054906101000a900460ff1681565b60008054906101000a900473ffffffffffffffffffffffffffffffffffffffff1681565b600080fd5b600073ffffffffffffffffffffffffffffffffffffffff82169050919050565b60006102ae82610283565b9050919050565b6102be816102a3565b81146102c957600080fd5b50565b6000813590506102db816102b5565b92915050565b6000602082840312156102f7576102f661027e565b5b6000610305848285016102cc565b91505092915050565b7f4e487b7100000000000000000000000000000000000000000000000000000000600052602160045260246000fd5b6004811061034e5761034d61030e565b5b50565b600081905061035f8261033d565b919050565b600061036f82610351565b9050919050565b61037f81610364565b82525050565b600060208201905061039a6000830184610376565b92915050565b600481106103ad57600080fd5b50565b6000813590506103bf816103a0565b92915050565b600080604083850312156103dc576103db61027e565b5b60006103ea858286016102cc565b92505060206103fb858286016103b0565b9150509250929050565b61040e816102a3565b82525050565b60006020820190506104296000830184610405565b92915050565b600082825260208201905092915050565b7f4f6e6c792061646d696e2063616e20706572666f726d2074686973206163746960008201527f6f6e000000000000000000000000000000000000000000000000000000000000602082015250565b600061049c60228361042f565b91506104a782610440565b604082019050919050565b600060208201905081810360008301526104cb8161048f565b905091905056fea2646970667358221220670a452f26e25ac1179fb3c965e6265eb89850981a4954355ede2f1f3069723064736f6c63430008130033",
  "immutableReferences": {},
  "source": "// SPDX-License-Identifier: MIT\r\npragma solidity ^0.8.19;\r\n\r\ncontract UserManager {\r\n    address public admin;\r\n\r\n    enum Clearance { None, Level1, Level2, Level3 }\r\n\r\n    mapping(address => Clearance) public userClearance;\r\n\r\n    constructor() {\r\n        admin = msg.sender;\r\n    }\r\n\r\n    modifier onlyAdmin() {\r\n        require(msg.sender == admin, \"Only admin can perform this action\");\r\n        _;\r\n    }\r\n\r\n    function setClearance(address _user, Clearance _level) external onlyAdmin {\r\n        userClearance[_user] = _level;\r\n    }\r\n\r\n    function getClearance(address _user) external view returns (Clearance) {\r\n        return userClearance[_user];\r\n    }\r\n}\r\n",
  "sourcePath": "C:\\Users\\ShreyK\\OneDrive\\Documents\\GitHub\\B2B\\Blockchain_LMS\\contracts\\UserManager.sol",
  "compiler": {
    "name": "solc",
    "version": "0.8.19+commit.7dd6d404.Emscripten.clang"
  },
  "schemaVersion": "3.4.16",
  "updatedAt": "2025-05-09T18:51:50.276Z",
  "networkType": "ethereum",
  "devdoc": {
    "kind": "dev",
    "methods": {},
    "version": 1
  },
  "userdoc": {
    "kind": "user",
    "methods": {},
    "version": 1
  }
}