{
  "contractName": "BookManager",
  "abi": [
    {
      "inputs": [
        {
          "internalType": "address",
          "name": "userManagerAddress",
          "type": "address"
        }
      ],
      "stateMutability": "nonpayable",
      "type": "constructor"
    },
    {
      "inputs": [
        {
          "internalType": "uint256",
          "name": "",
          "type": "uint256"
        }
      ],
      "name": "books",
      "outputs": [
        {
          "internalType": "string",
          "name": "title",
          "type": "string"
        },
        {
          "internalType": "uint256",
          "name": "requiredClearance",
          "type": "uint256"
        },
        {
          "internalType": "enum BookManager.Status",
          "name": "status",
          "type": "uint8"
        },
        {
          "internalType": "address",
          "name": "proposer",
          "type": "address"
        },
        {
          "internalType": "uint256",
          "name": "yesVotes",
          "type": "uint256"
        },
        {
          "internalType": "uint256",
          "name": "noVotes",
          "type": "uint256"
        }
      ],
      "stateMutability": "view",
      "type": "function",
      "constant": true
    },
    {
      "inputs": [],
      "name": "userManager",
      "outputs": [
        {
          "internalType": "contract UserManager",
          "name": "",
          "type": "address"
        }
      ],
      "stateMutability": "view",
      "type": "function",
      "constant": true
    },
    {
      "inputs": [
        {
          "internalType": "uint256",
          "name": "",
          "type": "uint256"
        },
        {
          "internalType": "address",
          "name": "",
          "type": "address"
        }
      ],
      "name": "voted",
      "outputs": [
        {
          "internalType": "bool",
          "name": "",
          "type": "bool"
        }
      ],
      "stateMutability": "view",
      "type": "function",
      "constant": true
    },
    {
      "inputs": [
        {
          "internalType": "string",
          "name": "_title",
          "type": "string"
        },
        {
          "internalType": "uint256",
          "name": "_requiredClearance",
          "type": "uint256"
        }
      ],
      "name": "proposeBook",
      "outputs": [],
      "stateMutability": "nonpayable",
      "type": "function"
    },
    {
      "inputs": [
        {
          "internalType": "uint256",
          "name": "_bookId",
          "type": "uint256"
        },
        {
          "internalType": "bool",
          "name": "_approve",
          "type": "bool"
        }
      ],
      "name": "voteOnBook",
      "outputs": [],
      "stateMutability": "nonpayable",
      "type": "function"
    },
    {
      "inputs": [
        {
          "internalType": "uint256",
          "name": "_bookId",
          "type": "uint256"
        }
      ],
      "name": "getBook",
      "outputs": [
        {
          "components": [
            {
              "internalType": "string",
              "name": "title",
              "type": "string"
            },
            {
              "internalType": "uint256",
              "name": "requiredClearance",
              "type": "uint256"
            },
            {
              "internalType": "enum BookManager.Status",
              "name": "status",
              "type": "uint8"
            },
            {
              "internalType": "address",
              "name": "proposer",
              "type": "address"
            },
            {
              "internalType": "uint256",
              "name": "yesVotes",
              "type": "uint256"
            },
            {
              "internalType": "uint256",
              "name": "noVotes",
              "type": "uint256"
            }
          ],
          "internalType": "struct BookManager.Book",
          "name": "",
          "type": "tuple"
        }
      ],
      "stateMutability": "view",
      "type": "function",
      "constant": true
    },
    {
      "inputs": [],
      "name": "getBooksCount",
      "outputs": [
        {
          "internalType": "uint256",
          "name": "",
          "type": "uint256"
        }
      ],
      "stateMutability": "view",
      "type": "function",
      "constant": true
    }
  ],
  "bytecode": "0x60806040523480156200001157600080fd5b50604051620017e7380380620017e78339818101604052810190620000379190620000e9565b80600160006101000a81548173ffffffffffffffffffffffffffffffffffffffff021916908373ffffffffffffffffffffffffffffffffffffffff160217905550506200011b565b600080fd5b600073ffffffffffffffffffffffffffffffffffffffff82169050919050565b6000620000b18262000084565b9050919050565b620000c381620000a4565b8114620000cf57600080fd5b50565b600081519050620000e381620000b8565b92915050565b6000602082840312156200010257620001016200007f565b5b60006200011284828501620000d2565b91505092915050565b6116bc806200012b6000396000f3fe608060405234801561001057600080fd5b506004361061007d5760003560e01c8063ab46260b1161005b578063ab46260b14610105578063dfd83d2a14610121578063e0ff5b8b1461013f578063e7c0098a1461016f5761007d565b80635277b4ae146100825780635c8a7687146100b257806368744046146100d0575b600080fd5b61009c60048036038101906100979190610ae5565b61018b565b6040516100a99190610b40565b60405180910390f35b6100ba6101ba565b6040516100c79190610bba565b60405180910390f35b6100ea60048036038101906100e59190610bd5565b6101e0565b6040516100fc96959493929190610d27565b60405180910390f35b61011f600480360381019061011a9190610ec4565b6102e1565b005b610129610505565b6040516101369190610f20565b60405180910390f35b61015960048036038101906101549190610bd5565b610511565b604051610166919061103b565b60405180910390f35b61018960048036038101906101849190611089565b61068e565b005b60026020528160005260406000206020528060005260406000206000915091509054906101000a900460ff1681565b600160009054906101000a900473ffffffffffffffffffffffffffffffffffffffff1681565b600081815481106101f057600080fd5b9060005260206000209060050201600091509050806000018054610213906110f8565b80601f016020809104026020016040519081016040528092919081815260200182805461023f906110f8565b801561028c5780601f106102615761010080835404028352916020019161028c565b820191906000526020600020905b81548152906001019060200180831161026f57829003601f168201915b5050505050908060010154908060020160009054906101000a900460ff16908060020160019054906101000a900473ffffffffffffffffffffffffffffffffffffffff16908060030154908060040154905086565b6002600160009054906101000a900473ffffffffffffffffffffffffffffffffffffffff1673ffffffffffffffffffffffffffffffffffffffff16634f3d520c336040518263ffffffff1660e01b815260040161033e9190611129565b602060405180830381865afa15801561035b573d6000803e3d6000fd5b505050506040513d601f19601f8201168201806040525081019061037f9190611169565b600381111561039157610390610ca1565b5b106103d1576040517f08c379a00000000000000000000000000000000000000000000000000000000081526004016103c890611208565b60405180910390fd5b60006040518060c00160405280848152602001838152602001600060028111156103fe576103fd610ca1565b5b81526020013373ffffffffffffffffffffffffffffffffffffffff1681526020016000815260200160008152509080600181540180825580915050600190039060005260206000209060050201600090919091909150600082015181600001908161046991906113ca565b506020820151816001015560408201518160020160006101000a81548160ff0219169083600281111561049f5761049e610ca1565b5b021790555060608201518160020160016101000a81548173ffffffffffffffffffffffffffffffffffffffff021916908373ffffffffffffffffffffffffffffffffffffffff1602179055506080820151816003015560a0820151816004015550505050565b60008080549050905090565b6105196109df565b6000828154811061052d5761052c61149c565b5b90600052602060002090600502016040518060c0016040529081600082018054610556906110f8565b80601f0160208091040260200160405190810160405280929190818152602001828054610582906110f8565b80156105cf5780601f106105a4576101008083540402835291602001916105cf565b820191906000526020600020905b8154815290600101906020018083116105b257829003601f168201915b50505050508152602001600182015481526020016002820160009054906101000a900460ff16600281111561060757610606610ca1565b5b600281111561061957610618610ca1565b5b81526020016002820160019054906101000a900473ffffffffffffffffffffffffffffffffffffffff1673ffffffffffffffffffffffffffffffffffffffff1673ffffffffffffffffffffffffffffffffffffffff168152602001600382015481526020016004820154815250509050919050565b60018060009054906101000a900473ffffffffffffffffffffffffffffffffffffffff1673ffffffffffffffffffffffffffffffffffffffff16634f3d520c336040518263ffffffff1660e01b81526004016106ea9190611129565b602060405180830381865afa158015610707573d6000803e3d6000fd5b505050506040513d601f19601f8201168201806040525081019061072b9190611169565b600381111561073d5761073c610ca1565b5b1061077d576040517f08c379a000000000000000000000000000000000000000000000000000000000815260040161077490611517565b60405180910390fd5b6002600083815260200190815260200160002060003373ffffffffffffffffffffffffffffffffffffffff1673ffffffffffffffffffffffffffffffffffffffff16815260200190815260200160002060009054906101000a900460ff161561081b576040517f08c379a000000000000000000000000000000000000000000000000000000000815260040161081290611583565b60405180910390fd5b60008083815481106108305761082f61149c565b5b906000526020600020906005020190506000600281111561085457610853610ca1565b5b8160020160009054906101000a900460ff16600281111561087857610877610ca1565b5b146108b8576040517f08c379a00000000000000000000000000000000000000000000000000000000081526004016108af906115ef565b60405180910390fd5b60016002600085815260200190815260200160002060003373ffffffffffffffffffffffffffffffffffffffff1673ffffffffffffffffffffffffffffffffffffffff16815260200190815260200160002060006101000a81548160ff02191690831515021790555081156109465780600301600081548092919061093c9061163e565b9190505550610961565b80600401600081548092919061095b9061163e565b91905055505b600281600301541061099f5760018160020160006101000a81548160ff0219169083600281111561099557610994610ca1565b5b02179055506109da565b60028160040154106109d95760028160020160006101000a81548160ff021916908360028111156109d3576109d2610ca1565b5b02179055505b5b505050565b6040518060c00160405280606081526020016000815260200160006002811115610a0c57610a0b610ca1565b5b8152602001600073ffffffffffffffffffffffffffffffffffffffff16815260200160008152602001600081525090565b6000604051905090565b600080fd5b600080fd5b6000819050919050565b610a6481610a51565b8114610a6f57600080fd5b50565b600081359050610a8181610a5b565b92915050565b600073ffffffffffffffffffffffffffffffffffffffff82169050919050565b6000610ab282610a87565b9050919050565b610ac281610aa7565b8114610acd57600080fd5b50565b600081359050610adf81610ab9565b92915050565b60008060408385031215610afc57610afb610a47565b5b6000610b0a85828601610a72565b9250506020610b1b85828601610ad0565b9150509250929050565b60008115159050919050565b610b3a81610b25565b82525050565b6000602082019050610b556000830184610b31565b92915050565b6000819050919050565b6000610b80610b7b610b7684610a87565b610b5b565b610a87565b9050919050565b6000610b9282610b65565b9050919050565b6000610ba482610b87565b9050919050565b610bb481610b99565b82525050565b6000602082019050610bcf6000830184610bab565b92915050565b600060208284031215610beb57610bea610a47565b5b6000610bf984828501610a72565b91505092915050565b600081519050919050565b600082825260208201905092915050565b60005b83811015610c3c578082015181840152602081019050610c21565b60008484015250505050565b6000601f19601f8301169050919050565b6000610c6482610c02565b610c6e8185610c0d565b9350610c7e818560208601610c1e565b610c8781610c48565b840191505092915050565b610c9b81610a51565b82525050565b7f4e487b7100000000000000000000000000000000000000000000000000000000600052602160045260246000fd5b60038110610ce157610ce0610ca1565b5b50565b6000819050610cf282610cd0565b919050565b6000610d0282610ce4565b9050919050565b610d1281610cf7565b82525050565b610d2181610aa7565b82525050565b600060c0820190508181036000830152610d418189610c59565b9050610d506020830188610c92565b610d5d6040830187610d09565b610d6a6060830186610d18565b610d776080830185610c92565b610d8460a0830184610c92565b979650505050505050565b600080fd5b600080fd5b7f4e487b7100000000000000000000000000000000000000000000000000000000600052604160045260246000fd5b610dd182610c48565b810181811067ffffffffffffffff82111715610df057610def610d99565b5b80604052505050565b6000610e03610a3d565b9050610e0f8282610dc8565b919050565b600067ffffffffffffffff821115610e2f57610e2e610d99565b5b610e3882610c48565b9050602081019050919050565b82818337600083830152505050565b6000610e67610e6284610e14565b610df9565b905082815260208101848484011115610e8357610e82610d94565b5b610e8e848285610e45565b509392505050565b600082601f830112610eab57610eaa610d8f565b5b8135610ebb848260208601610e54565b91505092915050565b60008060408385031215610edb57610eda610a47565b5b600083013567ffffffffffffffff811115610ef957610ef8610a4c565b5b610f0585828601610e96565b9250506020610f1685828601610a72565b9150509250929050565b6000602082019050610f356000830184610c92565b92915050565b600082825260208201905092915050565b6000610f5782610c02565b610f618185610f3b565b9350610f71818560208601610c1e565b610f7a81610c48565b840191505092915050565b610f8e81610a51565b82525050565b610f9d81610cf7565b82525050565b610fac81610aa7565b82525050565b600060c0830160008301518482036000860152610fcf8282610f4c565b9150506020830151610fe46020860182610f85565b506040830151610ff76040860182610f94565b50606083015161100a6060860182610fa3565b50608083015161101d6080860182610f85565b5060a083015161103060a0860182610f85565b508091505092915050565b600060208201905081810360008301526110558184610fb2565b905092915050565b61106681610b25565b811461107157600080fd5b50565b6000813590506110838161105d565b92915050565b600080604083850312156110a05761109f610a47565b5b60006110ae85828601610a72565b92505060206110bf85828601611074565b9150509250929050565b7f4e487b7100000000000000000000000000000000000000000000000000000000600052602260045260246000fd5b6000600282049050600182168061111057607f821691505b602082108103611123576111226110c9565b5b50919050565b600060208201905061113e6000830184610d18565b92915050565b6004811061115157600080fd5b50565b60008151905061116381611144565b92915050565b60006020828403121561117f5761117e610a47565b5b600061118d84828501611154565b91505092915050565b7f4e6f7420656e6f75676820636c656172616e636520746f2070726f706f73652060008201527f626f6f6b73000000000000000000000000000000000000000000000000000000602082015250565b60006111f2602583610c0d565b91506111fd82611196565b604082019050919050565b60006020820190508181036000830152611221816111e5565b9050919050565b60008190508160005260206000209050919050565b60006020601f8301049050919050565b600082821b905092915050565b60006008830261128a7fffffffffffffffffffffffffffffffffffffffffffffffffffffffffffffffff8261124d565b611294868361124d565b95508019841693508086168417925050509392505050565b60006112c76112c26112bd84610a51565b610b5b565b610a51565b9050919050565b6000819050919050565b6112e1836112ac565b6112f56112ed826112ce565b84845461125a565b825550505050565b600090565b61130a6112fd565b6113158184846112d8565b505050565b5b818110156113395761132e600082611302565b60018101905061131b565b5050565b601f82111561137e5761134f81611228565b6113588461123d565b81016020851015611367578190505b61137b6113738561123d565b83018261131a565b50505b505050565b600082821c905092915050565b60006113a160001984600802611383565b1980831691505092915050565b60006113ba8383611390565b9150826002028217905092915050565b6113d382610c02565b67ffffffffffffffff8111156113ec576113eb610d99565b5b6113f682546110f8565b61140182828561133d565b600060209050601f8311600181146114345760008415611422578287015190505b61142c85826113ae565b865550611494565b601f19841661144286611228565b60005b8281101561146a57848901518255600182019150602085019450602081019050611445565b868310156114875784890151611483601f891682611390565b8355505b6001600288020188555050505b505050505050565b7f4e487b7100000000000000000000000000000000000000000000000000000000600052603260045260246000fd5b7f4e6f7420656e6f75676820636c656172616e636520746f20766f746500000000600082015250565b6000611501601c83610c0d565b915061150c826114cb565b602082019050919050565b60006020820190508181036000830152611530816114f4565b9050919050565b7f416c726561647920766f74656400000000000000000000000000000000000000600082015250565b600061156d600d83610c0d565b915061157882611537565b602082019050919050565b6000602082019050818103600083015261159c81611560565b9050919050565b7f426f6f6b206973206e6f74206f70656e20666f7220766f74696e670000000000600082015250565b60006115d9601b83610c0d565b91506115e4826115a3565b602082019050919050565b60006020820190508181036000830152611608816115cc565b9050919050565b7f4e487b7100000000000000000000000000000000000000000000000000000000600052601160045260246000fd5b600061164982610a51565b91507fffffffffffffffffffffffffffffffffffffffffffffffffffffffffffffffff820361167b5761167a61160f565b5b60018201905091905056fea26469706673582212205a13c51d33cf293cebb20588db52e921ca5f10a70a3cdda2cb1194fd8f11f69b64736f6c63430008130033",
  "immutableReferences": {},
  "source": "// SPDX-License-Identifier: MIT\r\npragma solidity ^0.8.19;\r\n\r\nimport \"./UserManager.sol\";\r\n\r\ncontract BookManager {\r\n    enum Status { Proposed, Approved, Rejected }\r\n\r\n    struct Book {\r\n        string title;\r\n        uint requiredClearance;\r\n        Status status;\r\n        address proposer;\r\n        uint yesVotes;\r\n        uint noVotes;\r\n    }\r\n\r\n    Book[] public books;\r\n    UserManager public userManager;\r\n    mapping(uint => mapping(address => bool)) public voted; // track who voted on which book\r\n\r\n    constructor(address userManagerAddress) {\r\n        userManager = UserManager(userManagerAddress);\r\n    }\r\n\r\n    function proposeBook(string memory _title, uint _requiredClearance) external {\r\n        require(uint(userManager.getClearance(msg.sender)) < 2, \"Not enough clearance to propose books\");\r\n        books.push(Book(_title, _requiredClearance, Status.Proposed, msg.sender, 0, 0));\r\n    }\r\n\r\n    function voteOnBook(uint _bookId, bool _approve) external {\r\n        require(uint(userManager.getClearance(msg.sender)) < 1, \"Not enough clearance to vote\");\r\n        require(!voted[_bookId][msg.sender], \"Already voted\");\r\n\r\n        Book storage book = books[_bookId];\r\n        require(book.status == Status.Proposed, \"Book is not open for voting\");\r\n\r\n        voted[_bookId][msg.sender] = true;\r\n\r\n        if (_approve) {\r\n            book.yesVotes++;\r\n        } else {\r\n            book.noVotes++;\r\n        }\r\n\r\n        if (book.yesVotes >= 2) {\r\n            book.status = Status.Approved;\r\n        } else if (book.noVotes >= 2) {\r\n            book.status = Status.Rejected;\r\n        }\r\n    }\r\n\r\n    function getBook(uint _bookId) external view returns (Book memory) {\r\n        return books[_bookId];\r\n    }\r\n\r\n    function getBooksCount() external view returns (uint) {\r\n        return books.length;\r\n    }\r\n}\r\n",
  "sourcePath": "C:\\Users\\ShreyK\\OneDrive\\Documents\\GitHub\\B2B\\Blockchain_LMS\\contracts\\BookManager.sol",
  "compiler": {
    "name": "solc",
    "version": "0.8.19+commit.7dd6d404.Emscripten.clang"
  },
  "schemaVersion": "3.4.16",
  "updatedAt": "2025-05-09T05:56:04.458Z",
  "networkType": "ethereum",
  "devdoc": {
    "kind": "dev",
    "methods": {},
    "version": 1
  },
  "userdoc": {
    "kind": "user",
    "methods": {},
    "version": 1
  }
}